{
  "contractName": "DSToken",
  "abi": [
    {
      "constant": true,
      "inputs": [],
      "name": "name",
      "outputs": [
        {
          "name": "",
          "type": "bytes32"
        }
      ],
      "payable": false,
      "stateMutability": "view",
      "type": "function"
    },
    {
      "constant": false,
      "inputs": [],
      "name": "stop",
      "outputs": [],
      "payable": false,
      "stateMutability": "nonpayable",
      "type": "function"
    },
    {
      "constant": false,
      "inputs": [
        {
          "name": "guy",
          "type": "address"
        },
        {
          "name": "wad",
          "type": "uint256"
        }
      ],
      "name": "approve",
      "outputs": [
        {
          "name": "",
          "type": "bool"
        }
      ],
      "payable": false,
      "stateMutability": "nonpayable",
      "type": "function"
    },
    {
      "constant": false,
      "inputs": [
        {
          "name": "owner_",
          "type": "address"
        }
      ],
      "name": "setOwner",
      "outputs": [],
      "payable": false,
      "stateMutability": "nonpayable",
      "type": "function"
    },
    {
      "constant": true,
      "inputs": [],
      "name": "totalSupply",
      "outputs": [
        {
          "name": "",
          "type": "uint256"
        }
      ],
      "payable": false,
      "stateMutability": "view",
      "type": "function"
    },
    {
      "constant": false,
      "inputs": [
        {
          "name": "src",
          "type": "address"
        },
        {
          "name": "dst",
          "type": "address"
        },
        {
          "name": "wad",
          "type": "uint256"
        }
      ],
      "name": "transferFrom",
      "outputs": [
        {
          "name": "",
          "type": "bool"
        }
      ],
      "payable": false,
      "stateMutability": "nonpayable",
      "type": "function"
    },
    {
      "constant": true,
      "inputs": [],
      "name": "decimals",
      "outputs": [
        {
          "name": "",
          "type": "uint256"
        }
      ],
      "payable": false,
      "stateMutability": "view",
      "type": "function"
    },
    {
      "constant": false,
      "inputs": [
        {
          "name": "dst",
          "type": "address"
        },
        {
          "name": "wad",
          "type": "uint128"
        }
      ],
      "name": "push",
      "outputs": [
        {
          "name": "",
          "type": "bool"
        }
      ],
      "payable": false,
      "stateMutability": "nonpayable",
      "type": "function"
    },
    {
      "constant": false,
      "inputs": [
        {
          "name": "name_",
          "type": "bytes32"
        }
      ],
      "name": "setName",
      "outputs": [],
      "payable": false,
      "stateMutability": "nonpayable",
      "type": "function"
    },
    {
      "constant": false,
      "inputs": [
        {
          "name": "wad",
          "type": "uint128"
        }
      ],
      "name": "mint",
      "outputs": [],
      "payable": false,
      "stateMutability": "nonpayable",
      "type": "function"
    },
    {
      "constant": true,
      "inputs": [
        {
          "name": "src",
          "type": "address"
        }
      ],
      "name": "balanceOf",
      "outputs": [
        {
          "name": "",
          "type": "uint256"
        }
      ],
      "payable": false,
      "stateMutability": "view",
      "type": "function"
    },
    {
      "constant": true,
      "inputs": [],
      "name": "stopped",
      "outputs": [
        {
          "name": "",
          "type": "bool"
        }
      ],
      "payable": false,
      "stateMutability": "view",
      "type": "function"
    },
    {
      "constant": false,
      "inputs": [
        {
          "name": "authority_",
          "type": "address"
        }
      ],
      "name": "setAuthority",
      "outputs": [],
      "payable": false,
      "stateMutability": "nonpayable",
      "type": "function"
    },
    {
      "constant": false,
      "inputs": [
        {
          "name": "src",
          "type": "address"
        },
        {
          "name": "wad",
          "type": "uint128"
        }
      ],
      "name": "pull",
      "outputs": [
        {
          "name": "",
          "type": "bool"
        }
      ],
      "payable": false,
      "stateMutability": "nonpayable",
      "type": "function"
    },
    {
      "constant": true,
      "inputs": [],
      "name": "owner",
      "outputs": [
        {
          "name": "",
          "type": "address"
        }
      ],
      "payable": false,
      "stateMutability": "view",
      "type": "function"
    },
    {
      "constant": false,
      "inputs": [
        {
          "name": "wad",
          "type": "uint128"
        }
      ],
      "name": "burn",
      "outputs": [],
      "payable": false,
      "stateMutability": "nonpayable",
      "type": "function"
    },
    {
      "constant": true,
      "inputs": [],
      "name": "symbol",
      "outputs": [
        {
          "name": "",
          "type": "bytes32"
        }
      ],
      "payable": false,
      "stateMutability": "view",
      "type": "function"
    },
    {
      "constant": false,
      "inputs": [
        {
          "name": "dst",
          "type": "address"
        },
        {
          "name": "wad",
          "type": "uint256"
        }
      ],
      "name": "transfer",
      "outputs": [
        {
          "name": "",
          "type": "bool"
        }
      ],
      "payable": false,
      "stateMutability": "nonpayable",
      "type": "function"
    },
    {
      "constant": false,
      "inputs": [],
      "name": "start",
      "outputs": [],
      "payable": false,
      "stateMutability": "nonpayable",
      "type": "function"
    },
    {
      "constant": true,
      "inputs": [],
      "name": "authority",
      "outputs": [
        {
          "name": "",
          "type": "address"
        }
      ],
      "payable": false,
      "stateMutability": "view",
      "type": "function"
    },
    {
      "constant": true,
      "inputs": [
        {
          "name": "src",
          "type": "address"
        },
        {
          "name": "guy",
          "type": "address"
        }
      ],
      "name": "allowance",
      "outputs": [
        {
          "name": "",
          "type": "uint256"
        }
      ],
      "payable": false,
      "stateMutability": "view",
      "type": "function"
    },
    {
      "inputs": [
        {
          "name": "symbol_",
          "type": "bytes32"
        }
      ],
      "payable": false,
      "stateMutability": "nonpayable",
      "type": "constructor"
    },
    {
      "anonymous": true,
      "inputs": [
        {
          "indexed": true,
          "name": "sig",
          "type": "bytes4"
        },
        {
          "indexed": true,
          "name": "guy",
          "type": "address"
        },
        {
          "indexed": true,
          "name": "foo",
          "type": "bytes32"
        },
        {
          "indexed": true,
          "name": "bar",
          "type": "bytes32"
        },
        {
          "indexed": false,
          "name": "wad",
          "type": "uint256"
        },
        {
          "indexed": false,
          "name": "fax",
          "type": "bytes"
        }
      ],
      "name": "LogNote",
      "type": "event"
    },
    {
      "anonymous": false,
      "inputs": [
        {
          "indexed": true,
          "name": "authority",
          "type": "address"
        }
      ],
      "name": "LogSetAuthority",
      "type": "event"
    },
    {
      "anonymous": false,
      "inputs": [
        {
          "indexed": true,
          "name": "owner",
          "type": "address"
        }
      ],
      "name": "LogSetOwner",
      "type": "event"
    },
    {
      "anonymous": false,
      "inputs": [
        {
          "indexed": true,
          "name": "from",
          "type": "address"
        },
        {
          "indexed": true,
          "name": "to",
          "type": "address"
        },
        {
          "indexed": false,
          "name": "value",
          "type": "uint256"
        }
      ],
      "name": "Transfer",
      "type": "event"
    },
    {
      "anonymous": false,
      "inputs": [
        {
          "indexed": true,
          "name": "owner",
          "type": "address"
        },
        {
          "indexed": true,
          "name": "spender",
          "type": "address"
        },
        {
          "indexed": false,
          "name": "value",
          "type": "uint256"
        }
      ],
      "name": "Approval",
      "type": "event"
    }
  ],
  "bytecode": "0x606060405260126006556000600790600019169055341561001f57600080fd5b604051602080611c6283398101604052808051906020019091905050600080600160003373ffffffffffffffffffffffffffffffffffffffff1673ffffffffffffffffffffffffffffffffffffffff16815260200190815260200160002081905550806000819055505033600460006101000a81548173ffffffffffffffffffffffffffffffffffffffff021916908373ffffffffffffffffffffffffffffffffffffffff1602179055503373ffffffffffffffffffffffffffffffffffffffff167fce241d7ca1f669fee44b6fc00b8eba2df3bb514eed0f6f668f8f89096e81ed9460405160405180910390a2806005816000191690555050611b3a806101286000396000f30060606040526004361061011d576000357c0100000000000000000000000000000000000000000000000000000000900463ffffffff16806306fdde031461012257806307da68f514610153578063095ea7b31461016857806313af4035146101c257806318160ddd146101fb57806323b872dd14610224578063313ce5671461029d5780633452f51d146102c65780635ac801fe1461033257806369d3e20e1461035957806370a082311461038e57806375f12b21146103db5780637a9e5e4b146104085780638402181f146104415780638da5cb5b146104ad57806390bc16931461050257806395d89b4114610537578063a9059cbb14610568578063be9a6555146105c2578063bf7e214f146105d7578063dd62ed3e1461062c575b600080fd5b341561012d57600080fd5b610135610698565b60405180826000191660001916815260200191505060405180910390f35b341561015e57600080fd5b61016661069e565b005b341561017357600080fd5b6101a8600480803573ffffffffffffffffffffffffffffffffffffffff1690602001909190803590602001909190505061079e565b604051808215151515815260200191505060405180910390f35b34156101cd57600080fd5b6101f9600480803573ffffffffffffffffffffffffffffffffffffffff16906020019091905050610878565b005b341561020657600080fd5b61020e610957565b6040518082815260200191505060405180910390f35b341561022f57600080fd5b610283600480803573ffffffffffffffffffffffffffffffffffffffff1690602001909190803573ffffffffffffffffffffffffffffffffffffffff16906020019091908035906020019091905050610960565b604051808215151515815260200191505060405180910390f35b34156102a857600080fd5b6102b0610a3c565b6040518082815260200191505060405180910390f35b34156102d157600080fd5b610318600480803573ffffffffffffffffffffffffffffffffffffffff169060200190919080356fffffffffffffffffffffffffffffffff16906020019091905050610a42565b604051808215151515815260200191505060405180910390f35b341561033d57600080fd5b610357600480803560001916906020019091905050610a68565b005b341561036457600080fd5b61038c60048080356fffffffffffffffffffffffffffffffff16906020019091905050610aac565b005b341561039957600080fd5b6103c5600480803573ffffffffffffffffffffffffffffffffffffffff16906020019091905050610c6d565b6040518082815260200191505060405180910390f35b34156103e657600080fd5b6103ee610cb6565b604051808215151515815260200191505060405180910390f35b341561041357600080fd5b61043f600480803573ffffffffffffffffffffffffffffffffffffffff16906020019091905050610cc9565b005b341561044c57600080fd5b610493600480803573ffffffffffffffffffffffffffffffffffffffff169060200190919080356fffffffffffffffffffffffffffffffff16906020019091905050610da8565b604051808215151515815260200191505060405180910390f35b34156104b857600080fd5b6104c0610dcf565b604051808273ffffffffffffffffffffffffffffffffffffffff1673ffffffffffffffffffffffffffffffffffffffff16815260200191505060405180910390f35b341561050d57600080fd5b61053560048080356fffffffffffffffffffffffffffffffff16906020019091905050610df5565b005b341561054257600080fd5b61054a610fb6565b60405180826000191660001916815260200191505060405180910390f35b341561057357600080fd5b6105a8600480803573ffffffffffffffffffffffffffffffffffffffff16906020019091908035906020019091905050610fbc565b604051808215151515815260200191505060405180910390f35b34156105cd57600080fd5b6105d5611096565b005b34156105e257600080fd5b6105ea611196565b604051808273ffffffffffffffffffffffffffffffffffffffff1673ffffffffffffffffffffffffffffffffffffffff16815260200191505060405180910390f35b341561063757600080fd5b610682600480803573ffffffffffffffffffffffffffffffffffffffff1690602001909190803573ffffffffffffffffffffffffffffffffffffffff169060200190919050506111bc565b6040518082815260200191505060405180910390f35b60075481565b6106d46106cf336000357fffffffff0000000000000000000000000000000000000000000000000000000016611243565b6114a4565b60008060043591506024359050806000191682600019163373ffffffffffffffffffffffffffffffffffffffff166000357fffffffff00000000000000000000000000000000000000000000000000000000167bffffffffffffffffffffffffffffffffffffffffffffffffffffffff19163460003660405180848152602001806020018281038252848482818152602001925080828437820191505094505050505060405180910390a46001600460146101000a81548160ff0219169083151502179055505050565b60006107b9600460149054906101000a900460ff16156114a4565b60008060043591506024359050806000191682600019163373ffffffffffffffffffffffffffffffffffffffff166000357fffffffff00000000000000000000000000000000000000000000000000000000167bffffffffffffffffffffffffffffffffffffffffffffffffffffffff19163460003660405180848152602001806020018281038252848482818152602001925080828437820191505094505050505060405180910390a461086e85856114b3565b9250505092915050565b6108ae6108a9336000357fffffffff0000000000000000000000000000000000000000000000000000000016611243565b6114a4565b80600460006101000a81548173ffffffffffffffffffffffffffffffffffffffff021916908373ffffffffffffffffffffffffffffffffffffffff160217905550600460009054906101000a900473ffffffffffffffffffffffffffffffffffffffff1673ffffffffffffffffffffffffffffffffffffffff167fce241d7ca1f669fee44b6fc00b8eba2df3bb514eed0f6f668f8f89096e81ed9460405160405180910390a250565b60008054905090565b600061097b600460149054906101000a900460ff16156114a4565b60008060043591506024359050806000191682600019163373ffffffffffffffffffffffffffffffffffffffff166000357fffffffff00000000000000000000000000000000000000000000000000000000167bffffffffffffffffffffffffffffffffffffffffffffffffffffffff19163460003660405180848152602001806020018281038252848482818152602001925080828437820191505094505050505060405180910390a4610a318686866115a5565b925050509392505050565b60065481565b6000610a6083836fffffffffffffffffffffffffffffffff16610fbc565b905092915050565b610a9e610a99336000357fffffffff0000000000000000000000000000000000000000000000000000000016611243565b6114a4565b806007816000191690555050565b610ae2610add336000357fffffffff0000000000000000000000000000000000000000000000000000000016611243565b6114a4565b610afb600460149054906101000a900460ff16156114a4565b60008060043591506024359050806000191682600019163373ffffffffffffffffffffffffffffffffffffffff166000357fffffffff00000000000000000000000000000000000000000000000000000000167bffffffffffffffffffffffffffffffffffffffffffffffffffffffff19163460003660405180848152602001806020018281038252848482818152602001925080828437820191505094505050505060405180910390a4610c01600160003373ffffffffffffffffffffffffffffffffffffffff1673ffffffffffffffffffffffffffffffffffffffff16815260200190815260200160002054846fffffffffffffffffffffffffffffffff16611908565b600160003373ffffffffffffffffffffffffffffffffffffffff1673ffffffffffffffffffffffffffffffffffffffff16815260200190815260200160002081905550610c62600054846fffffffffffffffffffffffffffffffff16611908565b600081905550505050565b6000600160008373ffffffffffffffffffffffffffffffffffffffff1673ffffffffffffffffffffffffffffffffffffffff168152602001908152602001600020549050919050565b600460149054906101000a900460ff1681565b610cff610cfa336000357fffffffff0000000000000000000000000000000000000000000000000000000016611243565b6114a4565b80600360006101000a81548173ffffffffffffffffffffffffffffffffffffffff021916908373ffffffffffffffffffffffffffffffffffffffff160217905550600360009054906101000a900473ffffffffffffffffffffffffffffffffffffffff1673ffffffffffffffffffffffffffffffffffffffff167f1abebea81bfa2637f28358c371278fb15ede7ea8dd28d2e03b112ff6d936ada460405160405180910390a250565b6000610dc78333846fffffffffffffffffffffffffffffffff16610960565b905092915050565b600460009054906101000a900473ffffffffffffffffffffffffffffffffffffffff1681565b610e2b610e26336000357fffffffff0000000000000000000000000000000000000000000000000000000016611243565b6114a4565b610e44600460149054906101000a900460ff16156114a4565b60008060043591506024359050806000191682600019163373ffffffffffffffffffffffffffffffffffffffff166000357fffffffff00000000000000000000000000000000000000000000000000000000167bffffffffffffffffffffffffffffffffffffffffffffffffffffffff19163460003660405180848152602001806020018281038252848482818152602001925080828437820191505094505050505060405180910390a4610f4a600160003373ffffffffffffffffffffffffffffffffffffffff1673ffffffffffffffffffffffffffffffffffffffff16815260200190815260200160002054846fffffffffffffffffffffffffffffffff16611921565b600160003373ffffffffffffffffffffffffffffffffffffffff1673ffffffffffffffffffffffffffffffffffffffff16815260200190815260200160002081905550610fab600054846fffffffffffffffffffffffffffffffff16611921565b600081905550505050565b60055481565b6000610fd7600460149054906101000a900460ff16156114a4565b60008060043591506024359050806000191682600019163373ffffffffffffffffffffffffffffffffffffffff166000357fffffffff00000000000000000000000000000000000000000000000000000000167bffffffffffffffffffffffffffffffffffffffffffffffffffffffff19163460003660405180848152602001806020018281038252848482818152602001925080828437820191505094505050505060405180910390a461108c858561193a565b9250505092915050565b6110cc6110c7336000357fffffffff0000000000000000000000000000000000000000000000000000000016611243565b6114a4565b60008060043591506024359050806000191682600019163373ffffffffffffffffffffffffffffffffffffffff166000357fffffffff00000000000000000000000000000000000000000000000000000000167bffffffffffffffffffffffffffffffffffffffffffffffffffffffff19163460003660405180848152602001806020018281038252848482818152602001925080828437820191505094505050505060405180910390a46000600460146101000a81548160ff0219169083151502179055505050565b600360009054906101000a900473ffffffffffffffffffffffffffffffffffffffff1681565b6000600260008473ffffffffffffffffffffffffffffffffffffffff1673ffffffffffffffffffffffffffffffffffffffff16815260200190815260200160002060008373ffffffffffffffffffffffffffffffffffffffff1673ffffffffffffffffffffffffffffffffffffffff16815260200190815260200160002054905092915050565b60003073ffffffffffffffffffffffffffffffffffffffff168373ffffffffffffffffffffffffffffffffffffffff161415611282576001905061149e565b600460009054906101000a900473ffffffffffffffffffffffffffffffffffffffff1673ffffffffffffffffffffffffffffffffffffffff168373ffffffffffffffffffffffffffffffffffffffff1614156112e1576001905061149e565b600073ffffffffffffffffffffffffffffffffffffffff16600360009054906101000a900473ffffffffffffffffffffffffffffffffffffffff1673ffffffffffffffffffffffffffffffffffffffff161415611341576000905061149e565b600360009054906101000a900473ffffffffffffffffffffffffffffffffffffffff1673ffffffffffffffffffffffffffffffffffffffff1663b70096138430856000604051602001526040518463ffffffff167c0100000000000000000000000000000000000000000000000000000000028152600401808473ffffffffffffffffffffffffffffffffffffffff1673ffffffffffffffffffffffffffffffffffffffff1681526020018373ffffffffffffffffffffffffffffffffffffffff1673ffffffffffffffffffffffffffffffffffffffff168152602001827bffffffffffffffffffffffffffffffffffffffffffffffffffffffff19167bffffffffffffffffffffffffffffffffffffffffffffffffffffffff191681526020019350505050602060405180830381600087803b151561148057600080fd5b6102c65a03f1151561149157600080fd5b5050506040518051905090505b92915050565b8015156114b057600080fd5b50565b600081600260003373ffffffffffffffffffffffffffffffffffffffff1673ffffffffffffffffffffffffffffffffffffffff16815260200190815260200160002060008573ffffffffffffffffffffffffffffffffffffffff1673ffffffffffffffffffffffffffffffffffffffff168152602001908152602001600020819055508273ffffffffffffffffffffffffffffffffffffffff163373ffffffffffffffffffffffffffffffffffffffff167f8c5be1e5ebec7d5bd14f71427d1e84f3dd0314c0f7b2291e5b200ac8c7c3b925846040518082815260200191505060405180910390a36001905092915050565b600081600160008673ffffffffffffffffffffffffffffffffffffffff1673ffffffffffffffffffffffffffffffffffffffff16815260200190815260200160002054101515156115f257fe5b81600260008673ffffffffffffffffffffffffffffffffffffffff1673ffffffffffffffffffffffffffffffffffffffff16815260200190815260200160002060003373ffffffffffffffffffffffffffffffffffffffff1673ffffffffffffffffffffffffffffffffffffffff168152602001908152602001600020541015151561167a57fe5b611700600260008673ffffffffffffffffffffffffffffffffffffffff1673ffffffffffffffffffffffffffffffffffffffff16815260200190815260200160002060003373ffffffffffffffffffffffffffffffffffffffff1673ffffffffffffffffffffffffffffffffffffffff1681526020019081526020016000205483611921565b600260008673ffffffffffffffffffffffffffffffffffffffff1673ffffffffffffffffffffffffffffffffffffffff16815260200190815260200160002060003373ffffffffffffffffffffffffffffffffffffffff1673ffffffffffffffffffffffffffffffffffffffff168152602001908152602001600020819055506117c9600160008673ffffffffffffffffffffffffffffffffffffffff1673ffffffffffffffffffffffffffffffffffffffff1681526020019081526020016000205483611921565b600160008673ffffffffffffffffffffffffffffffffffffffff1673ffffffffffffffffffffffffffffffffffffffff16815260200190815260200160002081905550611855600160008573ffffffffffffffffffffffffffffffffffffffff1673ffffffffffffffffffffffffffffffffffffffff1681526020019081526020016000205483611908565b600160008573ffffffffffffffffffffffffffffffffffffffff1673ffffffffffffffffffffffffffffffffffffffff168152602001908152602001600020819055508273ffffffffffffffffffffffffffffffffffffffff168473ffffffffffffffffffffffffffffffffffffffff167fddf252ad1be2c89b69c2b068fc378daa952ba7f163c4a11628f55a4df523b3ef846040518082815260200191505060405180910390a3600190509392505050565b6000828284019150811015151561191b57fe5b92915050565b6000828284039150811115151561193457fe5b92915050565b600081600160003373ffffffffffffffffffffffffffffffffffffffff1673ffffffffffffffffffffffffffffffffffffffff168152602001908152602001600020541015151561198757fe5b6119d0600160003373ffffffffffffffffffffffffffffffffffffffff1673ffffffffffffffffffffffffffffffffffffffff1681526020019081526020016000205483611921565b600160003373ffffffffffffffffffffffffffffffffffffffff1673ffffffffffffffffffffffffffffffffffffffff16815260200190815260200160002081905550611a5c600160008573ffffffffffffffffffffffffffffffffffffffff1673ffffffffffffffffffffffffffffffffffffffff1681526020019081526020016000205483611908565b600160008573ffffffffffffffffffffffffffffffffffffffff1673ffffffffffffffffffffffffffffffffffffffff168152602001908152602001600020819055508273ffffffffffffffffffffffffffffffffffffffff163373ffffffffffffffffffffffffffffffffffffffff167fddf252ad1be2c89b69c2b068fc378daa952ba7f163c4a11628f55a4df523b3ef846040518082815260200191505060405180910390a360019050929150505600a165627a7a72305820c732c5e54cfa760fa7eb47ced82ff0c200b4551f0a2855223ea9f0935174e1180029",
  "source": "pragma solidity ^0.4.18;\r\n\r\ncontract DSNote {\r\n    event LogNote(\r\n        bytes4   indexed  sig,\r\n        address  indexed  guy,\r\n        bytes32  indexed  foo,\r\n        bytes32  indexed  bar,\r\n        uint\t \t  wad,\r\n        bytes             fax\r\n    ) anonymous;\r\n\r\n    modifier note {\r\n        bytes32 foo;\r\n        bytes32 bar;\r\n\r\n        assembly {\r\n            foo := calldataload(4)\r\n            bar := calldataload(36)\r\n        }\r\n\r\n        LogNote(msg.sig, msg.sender, foo, bar, msg.value, msg.data);\r\n\r\n        _;\r\n    }\r\n}\r\n\r\ncontract DSAuthority {\r\n    function canCall(\r\n        address src, address dst, bytes4 sig\r\n    ) constant returns (bool);\r\n}\r\n\r\ncontract DSAuthEvents {\r\n    event LogSetAuthority (address indexed authority);\r\n    event LogSetOwner     (address indexed owner);\r\n}\r\n\r\ncontract DSAuth is DSAuthEvents {\r\n    DSAuthority  public  authority;\r\n    address      public  owner;\r\n\r\n    function DSAuth() {\r\n        owner = msg.sender;\r\n        LogSetOwner(msg.sender);\r\n    }\r\n\r\n    function setOwner(address owner_)\r\n    auth\r\n    {\r\n        owner = owner_;\r\n        LogSetOwner(owner);\r\n    }\r\n\r\n    function setAuthority(DSAuthority authority_)\r\n    auth\r\n    {\r\n        authority = authority_;\r\n        LogSetAuthority(authority);\r\n    }\r\n\r\n    modifier auth {\r\n        assert(isAuthorized(msg.sender, msg.sig));\r\n        _;\r\n    }\r\n\r\n    modifier authorized(bytes4 sig) {\r\n        assert(isAuthorized(msg.sender, sig));\r\n        _;\r\n    }\r\n\r\n    function isAuthorized(address src, bytes4 sig) internal returns (bool) {\r\n        if (src == address(this)) {\r\n            return true;\r\n        } else if (src == owner) {\r\n            return true;\r\n        } else if (authority == DSAuthority(0)) {\r\n            return false;\r\n        } else {\r\n            return authority.canCall(src, this, sig);\r\n        }\r\n    }\r\n\r\n    function assert(bool x) internal {\r\n        if (!x) throw;\r\n    }\r\n}\r\n\r\ncontract DSStop is DSAuth, DSNote {\r\n\r\n    bool public stopped;\r\n\r\n    modifier stoppable {\r\n        assert (!stopped);\r\n        _;\r\n    }\r\n    function stop() auth note {\r\n        stopped = true;\r\n    }\r\n    function start() auth note {\r\n        stopped = false;\r\n    }\r\n\r\n}\r\n\r\ncontract DSMath {\r\n\r\n    /*\r\n    standard uint256 functions\r\n     */\r\n\r\n    function add(uint256 x, uint256 y) constant internal returns (uint256 z) {\r\n        assert((z = x + y) >= x);\r\n    }\r\n\r\n    function sub(uint256 x, uint256 y) constant internal returns (uint256 z) {\r\n        assert((z = x - y) <= x);\r\n    }\r\n\r\n    function mul(uint256 x, uint256 y) constant internal returns (uint256 z) {\r\n        assert((z = x * y) >= x);\r\n    }\r\n\r\n    function div(uint256 x, uint256 y) constant internal returns (uint256 z) {\r\n        z = x / y;\r\n    }\r\n\r\n    function min(uint256 x, uint256 y) constant internal returns (uint256 z) {\r\n        return x <= y ? x : y;\r\n    }\r\n    function max(uint256 x, uint256 y) constant internal returns (uint256 z) {\r\n        return x >= y ? x : y;\r\n    }\r\n\r\n    /*\r\n    uint128 functions (h is for half)\r\n     */\r\n\r\n\r\n    function hadd(uint128 x, uint128 y) constant internal returns (uint128 z) {\r\n        assert((z = x + y) >= x);\r\n    }\r\n\r\n    function hsub(uint128 x, uint128 y) constant internal returns (uint128 z) {\r\n        assert((z = x - y) <= x);\r\n    }\r\n\r\n    function hmul(uint128 x, uint128 y) constant internal returns (uint128 z) {\r\n        assert((z = x * y) >= x);\r\n    }\r\n\r\n    function hdiv(uint128 x, uint128 y) constant internal returns (uint128 z) {\r\n        z = x / y;\r\n    }\r\n\r\n    function hmin(uint128 x, uint128 y) constant internal returns (uint128 z) {\r\n        return x <= y ? x : y;\r\n    }\r\n    function hmax(uint128 x, uint128 y) constant internal returns (uint128 z) {\r\n        return x >= y ? x : y;\r\n    }\r\n\r\n\r\n    /*\r\n    int256 functions\r\n     */\r\n\r\n    function imin(int256 x, int256 y) constant internal returns (int256 z) {\r\n        return x <= y ? x : y;\r\n    }\r\n    function imax(int256 x, int256 y) constant internal returns (int256 z) {\r\n        return x >= y ? x : y;\r\n    }\r\n\r\n    /*\r\n    WAD math\r\n     */\r\n\r\n    uint128 constant WAD = 10 ** 18;\r\n\r\n    function wadd(uint128 x, uint128 y) constant internal returns (uint128) {\r\n        return hadd(x, y);\r\n    }\r\n\r\n    function wsub(uint128 x, uint128 y) constant internal returns (uint128) {\r\n        return hsub(x, y);\r\n    }\r\n\r\n    function wmul(uint128 x, uint128 y) constant internal returns (uint128 z) {\r\n        z = cast((uint256(x) * y + WAD / 2) / WAD);\r\n    }\r\n\r\n    function wdiv(uint128 x, uint128 y) constant internal returns (uint128 z) {\r\n        z = cast((uint256(x) * WAD + y / 2) / y);\r\n    }\r\n\r\n    function wmin(uint128 x, uint128 y) constant internal returns (uint128) {\r\n        return hmin(x, y);\r\n    }\r\n    function wmax(uint128 x, uint128 y) constant internal returns (uint128) {\r\n        return hmax(x, y);\r\n    }\r\n\r\n    /*\r\n    RAY math\r\n     */\r\n\r\n    uint128 constant RAY = 10 ** 27;\r\n\r\n    function radd(uint128 x, uint128 y) constant internal returns (uint128) {\r\n        return hadd(x, y);\r\n    }\r\n\r\n    function rsub(uint128 x, uint128 y) constant internal returns (uint128) {\r\n        return hsub(x, y);\r\n    }\r\n\r\n    function rmul(uint128 x, uint128 y) constant internal returns (uint128 z) {\r\n        z = cast((uint256(x) * y + RAY / 2) / RAY);\r\n    }\r\n\r\n    function rdiv(uint128 x, uint128 y) constant internal returns (uint128 z) {\r\n        z = cast((uint256(x) * RAY + y / 2) / y);\r\n    }\r\n\r\n    function rpow(uint128 x, uint64 n) constant internal returns (uint128 z) {\r\n        // This famous algorithm is called \"exponentiation by squaring\"\r\n        // and calculates x^n with x as fixed-point and n as regular unsigned.\r\n        //\r\n        // It's O(log n), instead of O(n) for naive repeated multiplication.\r\n        //\r\n        // These facts are why it works:\r\n        //\r\n        //  If n is even, then x^n = (x^2)^(n/2).\r\n        //  If n is odd,  then x^n = x * x^(n-1),\r\n        //   and applying the equation for even x gives\r\n        //    x^n = x * (x^2)^((n-1) / 2).\r\n        //\r\n        //  Also, EVM division is flooring and\r\n        //    floor[(n-1) / 2] = floor[n / 2].\r\n\r\n        z = n % 2 != 0 ? x : RAY;\r\n\r\n        for (n /= 2; n != 0; n /= 2) {\r\n            x = rmul(x, x);\r\n\r\n            if (n % 2 != 0) {\r\n                z = rmul(z, x);\r\n            }\r\n        }\r\n    }\r\n\r\n    function rmin(uint128 x, uint128 y) constant internal returns (uint128) {\r\n        return hmin(x, y);\r\n    }\r\n    function rmax(uint128 x, uint128 y) constant internal returns (uint128) {\r\n        return hmax(x, y);\r\n    }\r\n\r\n    function cast(uint256 x) constant internal returns (uint128 z) {\r\n        assert((z = uint128(x)) == x);\r\n    }\r\n\r\n}\r\n\r\ncontract ERC20 {\r\n    function totalSupply() constant returns (uint supply);\r\n    function balanceOf( address who ) constant returns (uint value);\r\n    function allowance( address owner, address spender ) constant returns (uint _allowance);\r\n\r\n    function transfer( address to, uint value) returns (bool ok);\r\n    function transferFrom( address from, address to, uint value) returns (bool ok);\r\n    function approve( address spender, uint value ) returns (bool ok);\r\n\r\n    event Transfer( address indexed from, address indexed to, uint value);\r\n    event Approval( address indexed owner, address indexed spender, uint value);\r\n}\r\n\r\ncontract DSTokenBase is ERC20, DSMath {\r\n    uint256                                            _supply;\r\n    mapping (address => uint256)                       _balances;\r\n    mapping (address => mapping (address => uint256))  _approvals;\r\n\r\n    function DSTokenBase(uint256 supply) {\r\n        _balances[msg.sender] = supply;\r\n        _supply = supply;\r\n    }\r\n\r\n    function totalSupply() constant returns (uint256) {\r\n        return _supply;\r\n    }\r\n    function balanceOf(address src) constant returns (uint256) {\r\n        return _balances[src];\r\n    }\r\n    function allowance(address src, address guy) constant returns (uint256) {\r\n        return _approvals[src][guy];\r\n    }\r\n\r\n    function transfer(address dst, uint wad) returns (bool) {\r\n        assert(_balances[msg.sender] >= wad);\r\n\r\n        _balances[msg.sender] = sub(_balances[msg.sender], wad);\r\n        _balances[dst] = add(_balances[dst], wad);\r\n\r\n        Transfer(msg.sender, dst, wad);\r\n\r\n        return true;\r\n    }\r\n\r\n    function transferFrom(address src, address dst, uint wad) returns (bool) {\r\n        assert(_balances[src] >= wad);\r\n        assert(_approvals[src][msg.sender] >= wad);\r\n\r\n        _approvals[src][msg.sender] = sub(_approvals[src][msg.sender], wad);\r\n        _balances[src] = sub(_balances[src], wad);\r\n        _balances[dst] = add(_balances[dst], wad);\r\n\r\n        Transfer(src, dst, wad);\r\n\r\n        return true;\r\n    }\r\n\r\n    function approve(address guy, uint256 wad) returns (bool) {\r\n        _approvals[msg.sender][guy] = wad;\r\n\r\n        Approval(msg.sender, guy, wad);\r\n\r\n        return true;\r\n    }\r\n\r\n}\r\n\r\ncontract DSToken is DSTokenBase(0), DSStop {\r\n\r\n    bytes32  public  symbol;\r\n    uint256  public  decimals = 18; // standard token precision. override to customize\r\n\r\n    function DSToken(bytes32 symbol_) {\r\n        symbol = symbol_;\r\n    }\r\n\r\n    function transfer(address dst, uint wad) stoppable note returns (bool) {\r\n        return super.transfer(dst, wad);\r\n    }\r\n    function transferFrom(\r\n        address src, address dst, uint wad\r\n    ) stoppable note returns (bool) {\r\n        return super.transferFrom(src, dst, wad);\r\n    }\r\n    function approve(address guy, uint wad) stoppable note returns (bool) {\r\n        return super.approve(guy, wad);\r\n    }\r\n\r\n    function push(address dst, uint128 wad) returns (bool) {\r\n        return transfer(dst, wad);\r\n    }\r\n    function pull(address src, uint128 wad) returns (bool) {\r\n        return transferFrom(src, msg.sender, wad);\r\n    }\r\n\r\n    function mint(uint128 wad) auth stoppable note {\r\n        _balances[msg.sender] = add(_balances[msg.sender], wad);\r\n        _supply = add(_supply, wad);\r\n    }\r\n    function burn(uint128 wad) auth stoppable note {\r\n        _balances[msg.sender] = sub(_balances[msg.sender], wad);\r\n        _supply = sub(_supply, wad);\r\n    }\r\n\r\n    // Optional token name\r\n\r\n    bytes32   public  name = \"\";\r\n\r\n    function setName(bytes32 name_) auth {\r\n        name = name_;\r\n    }\r\n\r\n}\r\n",
  "sourcePath": "D:\\work\\contracts\\scatter_reservations\\contracts\\EOS.sol",
  "compiler": {
    "name": "solc",
    "version": "0.4.19+commit.c4cbbb05.Emscripten.clang"
  },
  "schemaVersion": "2.0.0",
  "updatedAt": "2018-03-19T03:58:17.558Z"
}