{
  "contractName": "ScatterReservation",
  "abi": [
    {
      "constant": true,
      "inputs": [],
      "name": "reservationPrice",
      "outputs": [
        {
          "name": "",
          "type": "uint256"
        }
      ],
      "payable": false,
      "stateMutability": "view",
      "type": "function"
    },
    {
      "inputs": [
        {
          "name": "_eos",
          "type": "address"
        }
      ],
      "payable": false,
      "stateMutability": "nonpayable",
      "type": "constructor"
    },
    {
      "payable": true,
      "stateMutability": "payable",
      "type": "fallback"
    },
    {
      "anonymous": false,
      "inputs": [
        {
          "indexed": false,
          "name": "reservationId",
          "type": "uint256"
        },
        {
          "indexed": false,
          "name": "name",
          "type": "bytes24"
        },
        {
          "indexed": false,
          "name": "pkey",
          "type": "bytes"
        },
        {
          "indexed": false,
          "name": "eth",
          "type": "address"
        }
      ],
      "name": "EmitReservation",
      "type": "event"
    },
    {
      "anonymous": false,
      "inputs": [
        {
          "indexed": false,
          "name": "reservationId",
          "type": "uint256"
        },
        {
          "indexed": false,
          "name": "pkey",
          "type": "bytes"
        },
        {
          "indexed": false,
          "name": "price",
          "type": "uint256"
        },
        {
          "indexed": false,
          "name": "eth",
          "type": "address"
        }
      ],
      "name": "EmitBid",
      "type": "event"
    },
    {
      "anonymous": false,
      "inputs": [
        {
          "indexed": false,
          "name": "reservationId",
          "type": "uint256"
        },
        {
          "indexed": false,
          "name": "price",
          "type": "uint256"
        },
        {
          "indexed": false,
          "name": "bidder",
          "type": "address"
        }
      ],
      "name": "EmitUnBid",
      "type": "event"
    },
    {
      "anonymous": false,
      "inputs": [
        {
          "indexed": false,
          "name": "reservationId",
          "type": "uint256"
        },
        {
          "indexed": false,
          "name": "price",
          "type": "uint256"
        },
        {
          "indexed": false,
          "name": "pkey",
          "type": "bytes"
        },
        {
          "indexed": false,
          "name": "eth",
          "type": "address"
        }
      ],
      "name": "EmitSell",
      "type": "event"
    },
    {
      "constant": true,
      "inputs": [],
      "name": "currentId",
      "outputs": [
        {
          "name": "",
          "type": "uint256"
        }
      ],
      "payable": false,
      "stateMutability": "view",
      "type": "function"
    },
    {
      "constant": true,
      "inputs": [
        {
          "name": "name",
          "type": "bytes24"
        }
      ],
      "name": "exists",
      "outputs": [
        {
          "name": "",
          "type": "bool"
        }
      ],
      "payable": false,
      "stateMutability": "view",
      "type": "function"
    },
    {
      "constant": true,
      "inputs": [
        {
          "name": "rId",
          "type": "uint256"
        }
      ],
      "name": "reservationOwner",
      "outputs": [
        {
          "name": "",
          "type": "address"
        }
      ],
      "payable": false,
      "stateMutability": "view",
      "type": "function"
    },
    {
      "constant": true,
      "inputs": [
        {
          "name": "rId",
          "type": "uint256"
        }
      ],
      "name": "bidOwner",
      "outputs": [
        {
          "name": "",
          "type": "address"
        }
      ],
      "payable": false,
      "stateMutability": "view",
      "type": "function"
    },
    {
      "constant": true,
      "inputs": [],
      "name": "getSignatory",
      "outputs": [
        {
          "name": "",
          "type": "address"
        }
      ],
      "payable": false,
      "stateMutability": "view",
      "type": "function"
    },
    {
      "constant": true,
      "inputs": [
        {
          "name": "rId",
          "type": "uint256"
        }
      ],
      "name": "lastPrice",
      "outputs": [
        {
          "name": "",
          "type": "uint256"
        }
      ],
      "payable": false,
      "stateMutability": "view",
      "type": "function"
    },
    {
      "constant": true,
      "inputs": [],
      "name": "getTransferrable",
      "outputs": [
        {
          "name": "",
          "type": "uint256"
        }
      ],
      "payable": false,
      "stateMutability": "view",
      "type": "function"
    },
    {
      "constant": false,
      "inputs": [
        {
          "name": "_signatory",
          "type": "address"
        }
      ],
      "name": "setSignatory",
      "outputs": [],
      "payable": false,
      "stateMutability": "nonpayable",
      "type": "function"
    },
    {
      "constant": false,
      "inputs": [
        {
          "name": "_launched",
          "type": "bool"
        }
      ],
      "name": "setChainLaunched",
      "outputs": [],
      "payable": false,
      "stateMutability": "nonpayable",
      "type": "function"
    },
    {
      "constant": false,
      "inputs": [
        {
          "name": "_address",
          "type": "address"
        }
      ],
      "name": "setEOSAddress",
      "outputs": [],
      "payable": false,
      "stateMutability": "nonpayable",
      "type": "function"
    },
    {
      "constant": false,
      "inputs": [
        {
          "name": "_price",
          "type": "uint256"
        }
      ],
      "name": "setReservationPrice",
      "outputs": [],
      "payable": false,
      "stateMutability": "nonpayable",
      "type": "function"
    },
    {
      "constant": false,
      "inputs": [
        {
          "name": "timeout",
          "type": "uint256"
        }
      ],
      "name": "setBidTimeout",
      "outputs": [],
      "payable": false,
      "stateMutability": "nonpayable",
      "type": "function"
    },
    {
      "constant": false,
      "inputs": [
        {
          "name": "to",
          "type": "address"
        },
        {
          "name": "amount",
          "type": "uint256"
        }
      ],
      "name": "transferOut",
      "outputs": [],
      "payable": false,
      "stateMutability": "nonpayable",
      "type": "function"
    },
    {
      "constant": false,
      "inputs": [
        {
          "name": "_names",
          "type": "bytes24[]"
        }
      ],
      "name": "forceReservedNames",
      "outputs": [],
      "payable": false,
      "stateMutability": "nonpayable",
      "type": "function"
    },
    {
      "constant": false,
      "inputs": [
        {
          "name": "name",
          "type": "bytes24"
        },
        {
          "name": "pkey",
          "type": "bytes"
        }
      ],
      "name": "reserve",
      "outputs": [],
      "payable": false,
      "stateMutability": "nonpayable",
      "type": "function"
    },
    {
      "constant": false,
      "inputs": [
        {
          "name": "rId",
          "type": "uint256"
        },
        {
          "name": "pkey",
          "type": "bytes"
        }
      ],
      "name": "bid",
      "outputs": [],
      "payable": true,
      "stateMutability": "payable",
      "type": "function"
    },
    {
      "constant": false,
      "inputs": [
        {
          "name": "rId",
          "type": "uint256"
        }
      ],
      "name": "unBid",
      "outputs": [],
      "payable": false,
      "stateMutability": "nonpayable",
      "type": "function"
    },
    {
      "constant": false,
      "inputs": [
        {
          "name": "rId",
          "type": "uint256"
        }
      ],
      "name": "sell",
      "outputs": [],
      "payable": false,
      "stateMutability": "nonpayable",
      "type": "function"
    }
  ],
  "bytecode": "0x60606040526202a3006001556000600d55341561001b57600080fd5b6040516020806127b583398101604052808051906020019091905050806000806101000a81548173ffffffffffffffffffffffffffffffffffffffff021916908373ffffffffffffffffffffffffffffffffffffffff16021790555033600260006101000a81548173ffffffffffffffffffffffffffffffffffffffff021916908373ffffffffffffffffffffffffffffffffffffffff1602179055506000600c60006101000a81548160ff0219169083151502179055506001600b81905550670de0b6b3a7640000600481905550506126bb806100fa6000396000f300606060405260043610610106576000357c0100000000000000000000000000000000000000000000000000000000900463ffffffff168062fd94cb1461010857806302488cc51461013f578063179fdc6a146101a25780631d2d6e70146101cb57806374c321ad1461020457806376890c581461022757806395a0997214610269578063a3615bc0146102c3578063a8357f0314610326578063af426f1114610397578063bf944250146103c0578063c93280c7146103e5578063e00dd16114610408578063e1fb193e14610431578063e4849b321461048c578063e58dc834146104af578063e786746f146104d2578063ebcc98481461050b578063fa3e00d514610560575b005b341561011357600080fd5b61012960048080359060200190919050506105a6565b6040518082815260200191505060405180910390f35b341561014a57600080fd5b61016060048080359060200190919050506105c3565b604051808273ffffffffffffffffffffffffffffffffffffffff1673ffffffffffffffffffffffffffffffffffffffff16815260200191505060405180910390f35b34156101ad57600080fd5b6101b5610600565b6040518082815260200191505060405180910390f35b34156101d657600080fd5b610202600480803573ffffffffffffffffffffffffffffffffffffffff169060200190919050506106c0565b005b341561020f57600080fd5b6102256004808035906020019091905050610799565b005b341561023257600080fd5b610267600480803573ffffffffffffffffffffffffffffffffffffffff16906020019091908035906020019091905050610859565b005b341561027457600080fd5b6102c160048080359060200190820180359060200190808060200260200160405190810160405280939291908181526020018383602002808284378201915050505050509190505061097a565b005b34156102ce57600080fd5b6102e46004808035906020019091905050610a97565b604051808273ffffffffffffffffffffffffffffffffffffffff1673ffffffffffffffffffffffffffffffffffffffff16815260200191505060405180910390f35b341561033157600080fd5b610395600480803567ffffffffffffffff191690602001909190803590602001908201803590602001908080601f01602080910402602001604051908101604052809392919081815260200183838082843782019150505050505091905050610ad4565b005b34156103a257600080fd5b6103aa610e32565b6040518082815260200191505060405180910390f35b34156103cb57600080fd5b6103e360048080351515906020019091905050610e38565b005b34156103f057600080fd5b6104066004808035906020019091905050610f0b565b005b341561041357600080fd5b61041b610fcb565b6040518082815260200191505060405180910390f35b61048a600480803590602001909190803590602001908201803590602001908080601f01602080910402602001604051908101604052809392919081815260200183838082843782019150505050505091905050610fd5565b005b341561049757600080fd5b6104ad6004808035906020019091905050611506565b005b34156104ba57600080fd5b6104d06004808035906020019091905050611a47565b005b34156104dd57600080fd5b610509600480803573ffffffffffffffffffffffffffffffffffffffff16906020019091905050611c64565b005b341561051657600080fd5b61051e611d5d565b604051808273ffffffffffffffffffffffffffffffffffffffff1673ffffffffffffffffffffffffffffffffffffffff16815260200191505060405180910390f35b341561056b57600080fd5b61058c600480803567ffffffffffffffff1916906020019091905050611d87565b604051808215151515815260200191505060405180910390f35b600060096000838152602001908152602001600020549050919050565b60006005600083815260200190815260200160002060009054906101000a900473ffffffffffffffffffffffffffffffffffffffff169050919050565b6000600360009054906101000a900473ffffffffffffffffffffffffffffffffffffffff168073ffffffffffffffffffffffffffffffffffffffff163373ffffffffffffffffffffffffffffffffffffffff1614806106ac57503373ffffffffffffffffffffffffffffffffffffffff16600260009054906101000a900473ffffffffffffffffffffffffffffffffffffffff1673ffffffffffffffffffffffffffffffffffffffff16145b15156106b757600080fd5b600d5491505090565b60008073ffffffffffffffffffffffffffffffffffffffff163373ffffffffffffffffffffffffffffffffffffffff16148061074957503373ffffffffffffffffffffffffffffffffffffffff16600260009054906101000a900473ffffffffffffffffffffffffffffffffffffffff1673ffffffffffffffffffffffffffffffffffffffff16145b151561075457600080fd5b81600360006101000a81548173ffffffffffffffffffffffffffffffffffffffff021916908373ffffffffffffffffffffffffffffffffffffffff1602179055505050565b600360009054906101000a900473ffffffffffffffffffffffffffffffffffffffff168073ffffffffffffffffffffffffffffffffffffffff163373ffffffffffffffffffffffffffffffffffffffff16148061084357503373ffffffffffffffffffffffffffffffffffffffff16600260009054906101000a900473ffffffffffffffffffffffffffffffffffffffff1673ffffffffffffffffffffffffffffffffffffffff16145b151561084e57600080fd5b816001819055505050565b600360009054906101000a900473ffffffffffffffffffffffffffffffffffffffff168073ffffffffffffffffffffffffffffffffffffffff163373ffffffffffffffffffffffffffffffffffffffff16148061090357503373ffffffffffffffffffffffffffffffffffffffff16600260009054906101000a900473ffffffffffffffffffffffffffffffffffffffff1673ffffffffffffffffffffffffffffffffffffffff16145b151561090e57600080fd5b600d548210156109755781600d600082825403925050819055508273ffffffffffffffffffffffffffffffffffffffff166108fc839081150290604051600060405180830381858888f1935050505015156109745781600d600082825401925050819055505b5b505050565b6000600360009054906101000a900473ffffffffffffffffffffffffffffffffffffffff168073ffffffffffffffffffffffffffffffffffffffff163373ffffffffffffffffffffffffffffffffffffffff161480610a2657503373ffffffffffffffffffffffffffffffffffffffff16600260009054906101000a900473ffffffffffffffffffffffffffffffffffffffff1673ffffffffffffffffffffffffffffffffffffffff16145b1515610a3157600080fd5b600091505b8251821015610a92576001600a60008585815181101515610a5357fe5b9060200190602002015167ffffffffffffffff191667ffffffffffffffff19168152602001908152602001600020819055508180600101925050610a36565b505050565b60006007600083815260200190815260200160002060009054906101000a900473ffffffffffffffffffffffffffffffffffffffff169050919050565b600c60009054906101000a900460ff16151515610af057600080fd5b610afa8282611dbc565b1515610b0557600080fd5b610b0e82611d87565b151515610b1a57600080fd5b610b25600454611e12565b1515610b3057600080fd5b600b60008154809291906001019190505550600b54600a60008467ffffffffffffffff191667ffffffffffffffff19168152602001908152602001600020819055503360056000600b54815260200190815260200160002060006101000a81548173ffffffffffffffffffffffffffffffffffffffff021916908373ffffffffffffffffffffffffffffffffffffffff16021790555060c060405190810160405280600b54815260200160007f0100000000000000000000000000000000000000000000000000000000000000027effffffffffffffffffffffffffffffffffffffffffffffffffffffffffffff191681526020018367ffffffffffffffff1916815260200182815260200160045481526020016000151581525060066000600b5481526020019081526020016000206000820151816000015560208201518160010160006101000a81548160ff02191690837f01000000000000000000000000000000000000000000000000000000000000009004021790555060408201518160010160016101000a81548177ffffffffffffffffffffffffffffffffffffffffffffffff021916908368010000000000000000900402179055506060820151816002019080519060200190610d0892919061251b565b506080820151816003015560a08201518160040160006101000a81548160ff0219169083151502179055509050507f4a56bce5136d37ddc9527cf49a085a6870f0e92ed7f7db4ddb6c519079e94213600b54838333604051808581526020018467ffffffffffffffff191667ffffffffffffffff19168152602001806020018373ffffffffffffffffffffffffffffffffffffffff1673ffffffffffffffffffffffffffffffffffffffff168152602001828103825284818151815260200191508051906020019080838360005b83811015610df1578082015181840152602081019050610dd6565b50505050905090810190601f168015610e1e5780820380516001836020036101000a031916815260200191505b509550505050505060405180910390a15050565b60045481565b600360009054906101000a900473ffffffffffffffffffffffffffffffffffffffff168073ffffffffffffffffffffffffffffffffffffffff163373ffffffffffffffffffffffffffffffffffffffff161480610ee257503373ffffffffffffffffffffffffffffffffffffffff16600260009054906101000a900473ffffffffffffffffffffffffffffffffffffffff1673ffffffffffffffffffffffffffffffffffffffff16145b1515610eed57600080fd5b81600c60006101000a81548160ff0219169083151502179055505050565b600360009054906101000a900473ffffffffffffffffffffffffffffffffffffffff168073ffffffffffffffffffffffffffffffffffffffff163373ffffffffffffffffffffffffffffffffffffffff161480610fb557503373ffffffffffffffffffffffffffffffffffffffff16600260009054906101000a900473ffffffffffffffffffffffffffffffffffffffff1673ffffffffffffffffffffffffffffffffffffffff16145b1515610fc057600080fd5b816004819055505050565b6000600b54905090565b600c60009054906101000a900460ff16151515610ff157600080fd5b3373ffffffffffffffffffffffffffffffffffffffff166005600084815260200190815260200160002060009054906101000a900473ffffffffffffffffffffffffffffffffffffffff1673ffffffffffffffffffffffffffffffffffffffff161415151561105c57fe5b3373ffffffffffffffffffffffffffffffffffffffff166007600084815260200190815260200160002060009054906101000a900473ffffffffffffffffffffffffffffffffffffffff1673ffffffffffffffffffffffffffffffffffffffff16141515156110c757fe5b662386f26fc1000034101515156110dd57600080fd5b6000600660008481526020019081526020016000206000015411151561110257600080fd5b61110b81612064565b151561111657600080fd5b6111ce600660008481526020019081526020016000206002018054600181600116156101000203166002900480601f0160208091040260200160405190810160405280929190818152602001828054600181600116156101000203166002900480156111c35780601f10611198576101008083540402835291602001916111c3565b820191906000526020600020905b8154815290600101906020018083116111a657829003601f168201915b50505050508261207c565b1515156111da57600080fd5b6000600960008481526020019081526020016000205411156112185734600960008481526020019081526020016000205410151561121757600080fd5b5b6000600860008481526020019081526020016000206001015411156113445734600860008481526020019081526020016000206001015410151561125b57600080fd5b6008600083815260200190815260200160002060030160009054906101000a900460ff1615151561128b57600080fd5b60016008600084815260200190815260200160002060030160006101000a81548160ff0219169083151502179055506007600083815260200190815260200160002060009054906101000a900473ffffffffffffffffffffffffffffffffffffffff1673ffffffffffffffffffffffffffffffffffffffff166108fc60086000858152602001908152602001600020600101549081150290604051600060405180830381858888f19350505050151561134357600080fd5b5b336007600084815260200190815260200160002060006101000a81548173ffffffffffffffffffffffffffffffffffffffff021916908373ffffffffffffffffffffffffffffffffffffffff160217905550608060405190810160405280828152602001348152602001428152602001600015158152506008600084815260200190815260200160002060008201518160000190805190602001906113ea92919061251b565b50602082015181600101556040820151816002015560608201518160030160006101000a81548160ff0219169083151502179055509050507f50fb67817ea06d34caab59f1590d7844befa743e215b6f180f1f4dc51cabb3bc8282343360405180858152602001806020018481526020018373ffffffffffffffffffffffffffffffffffffffff1673ffffffffffffffffffffffffffffffffffffffff168152602001828103825285818151815260200191508051906020019080838360005b838110156114c55780820151818401526020810190506114aa565b50505050905090810190601f1680156114f25780820380516001836020036101000a031916815260200191505b509550505050505060405180910390a15050565b600c60009054906101000a900460ff1615151561152257600080fd5b6000600660008381526020019081526020016000206000015411151561154457fe5b3373ffffffffffffffffffffffffffffffffffffffff166005600083815260200190815260200160002060009054906101000a900473ffffffffffffffffffffffffffffffffffffffff1673ffffffffffffffffffffffffffffffffffffffff161415156115ae57fe5b6006600082815260200190815260200160002060040160009054906101000a900460ff161515156115db57fe5b6000600860008381526020019081526020016000206001015411151561160057600080fd5b60016006600083815260200190815260200160002060040160006101000a81548160ff0219169083151502179055506005600082815260200190815260200160002060009054906101000a900473ffffffffffffffffffffffffffffffffffffffff1673ffffffffffffffffffffffffffffffffffffffff166108fc600a600860008581526020019081526020016000206001015481151561169e57fe5b046008600085815260200190815260200160002060010154039081150290604051600060405180830381858888f19350505050151561170b5760006006600083815260200190815260200160002060040160006101000a81548160ff021916908315150217905550611a44565b600a600860008381526020019081526020016000206001015481151561172d57fe5b04600d600082825401925050819055506008600082815260200190815260200160002060000160066000838152602001908152602001600020600201908054600181600116156101000203166002900461178892919061259b565b506007600082815260200190815260200160002060009054906101000a900473ffffffffffffffffffffffffffffffffffffffff166005600083815260200190815260200160002060006101000a81548173ffffffffffffffffffffffffffffffffffffffff021916908373ffffffffffffffffffffffffffffffffffffffff1602179055506008600082815260200190815260200160002060010154600960008381526020019081526020016000208190555060086000828152602001908152602001600020600080820160006118609190612622565b600182016000905560028201600090556003820160006101000a81549060ff021916905550506007600082815260200190815260200160002060006101000a81549073ffffffffffffffffffffffffffffffffffffffff021916905560006006600083815260200190815260200160002060040160006101000a81548160ff0219169083151502179055507f5ae4bf4bfb336f4bd03b95afba939a3db09cf8f2ec082830e9c829a126cd917b816009600084815260200190815260200160002054600660008581526020019081526020016000206002016005600086815260200190815260200160002060009054906101000a900473ffffffffffffffffffffffffffffffffffffffff1660405180858152602001848152602001806020018373ffffffffffffffffffffffffffffffffffffffff1673ffffffffffffffffffffffffffffffffffffffff168152602001828103825284818154600181600116156101000203166002900481526020019150805460018160011615610100020316600290048015611a325780601f10611a0757610100808354040283529160200191611a32565b820191906000526020600020905b815481529060010190602001808311611a1557829003601f168201915b50509550505050505060405180910390a15b50565b6000803373ffffffffffffffffffffffffffffffffffffffff166007600085815260200190815260200160002060009054906101000a900473ffffffffffffffffffffffffffffffffffffffff1673ffffffffffffffffffffffffffffffffffffffff16141515611ab457fe5b6001544201600860008581526020019081526020016000206002015410151515611add57600080fd5b600860008481526020019081526020016000206001015491506007600084815260200190815260200160002060009054906101000a900473ffffffffffffffffffffffffffffffffffffffff1690506007600084815260200190815260200160002060006101000a81549073ffffffffffffffffffffffffffffffffffffffff02191690556008600084815260200190815260200160002060008082016000611b869190612622565b600182016000905560028201600090556003820160006101000a81549060ff021916905550508073ffffffffffffffffffffffffffffffffffffffff166108fc839081150290604051600060405180830381858888f193505050501515611bec57600080fd5b7f1985c40a87db0c7e3af9affd6bcbba48db01c478c9ce122f62f7510a39c62b52838333604051808481526020018381526020018273ffffffffffffffffffffffffffffffffffffffff1673ffffffffffffffffffffffffffffffffffffffff168152602001935050505060405180910390a1505050565b600360009054906101000a900473ffffffffffffffffffffffffffffffffffffffff168073ffffffffffffffffffffffffffffffffffffffff163373ffffffffffffffffffffffffffffffffffffffff161480611d0e57503373ffffffffffffffffffffffffffffffffffffffff16600260009054906101000a900473ffffffffffffffffffffffffffffffffffffffff1673ffffffffffffffffffffffffffffffffffffffff16145b1515611d1957600080fd5b816000806101000a81548173ffffffffffffffffffffffffffffffffffffffff021916908373ffffffffffffffffffffffffffffffffffffffff1602179055505050565b6000600360009054906101000a900473ffffffffffffffffffffffffffffffffffffffff16905090565b600080600a60008467ffffffffffffffff191667ffffffffffffffff1916815260200190815260200160002054119050919050565b60006002611dc984612155565b118015611ddf57506014611ddc84612155565b11155b1515611dea57600080fd5b611df383612361565b1515611dfe57600080fd5b611e0782612064565b506001905092915050565b60008060009054906101000a900473ffffffffffffffffffffffffffffffffffffffff1673ffffffffffffffffffffffffffffffffffffffff1663dd62ed3e33306000604051602001526040518363ffffffff167c0100000000000000000000000000000000000000000000000000000000028152600401808373ffffffffffffffffffffffffffffffffffffffff1673ffffffffffffffffffffffffffffffffffffffff1681526020018273ffffffffffffffffffffffffffffffffffffffff1673ffffffffffffffffffffffffffffffffffffffff16815260200192505050602060405180830381600087803b1515611f0c57600080fd5b6102c65a03f11515611f1d57600080fd5b505050604051805190508211151515611f3557600080fd5b6000809054906101000a900473ffffffffffffffffffffffffffffffffffffffff1673ffffffffffffffffffffffffffffffffffffffff166323b872dd3330856000604051602001526040518463ffffffff167c0100000000000000000000000000000000000000000000000000000000028152600401808473ffffffffffffffffffffffffffffffffffffffff1673ffffffffffffffffffffffffffffffffffffffff1681526020018373ffffffffffffffffffffffffffffffffffffffff1673ffffffffffffffffffffffffffffffffffffffff1681526020018281526020019350505050602060405180830381600087803b151561203557600080fd5b6102c65a03f1151561204657600080fd5b50505060405180519050151561205b57600080fd5b60019050919050565b6000601e825111151561207357fe5b60019050919050565b6000816040518082805190602001908083835b6020831015156120b4578051825260208201915060208101905060208303925061208f565b6001836020036101000a038019825116818451168082178552505050505050905001915050604051809103902060001916836040518082805190602001908083835b60208310151561211b57805182526020820191506020810190506020830392506120f6565b6001836020036101000a03801982511681845116808217855250505050505090500191505060405180910390206000191614905092915050565b600080600068010000000000000000028367ffffffffffffffff19161415612180576000915061235b565b600068010000000000000000026fffffffffffffffffffffffffffffffff6801000000000000000002841667ffffffffffffffff191614156121f957601081019050700100000000000000000000000000000000836801000000000000000090048115156121ea57fe5b04680100000000000000000292505b6000680100000000000000000267ffffffffffffffff6801000000000000000002841667ffffffffffffffff1916141561226257600881019050680100000000000000008368010000000000000000900481151561225357fe5b04680100000000000000000292505b6000680100000000000000000263ffffffff6801000000000000000002841667ffffffffffffffff191614156122c357600481019050640100000000836801000000000000000090048115156122b457fe5b04680100000000000000000292505b6000680100000000000000000261ffff6801000000000000000002841667ffffffffffffffff1916141561232057600281019050620100008368010000000000000000900481151561231157fe5b04680100000000000000000292505b6000680100000000000000000260ff6801000000000000000002841667ffffffffffffffff19161415612354576001810190505b8060180391505b50919050565b600080600090505b601860ff168110156125105760207f01000000000000000000000000000000000000000000000000000000000000000283826018811015156123a757fe5b1a7f0100000000000000000000000000000000000000000000000000000000000000027effffffffffffffffffffffffffffffffffffffffffffffffffffffffffffff191614156123fb5760009150612515565b60417f010000000000000000000000000000000000000000000000000000000000000002838260188110151561242d57fe5b1a7f0100000000000000000000000000000000000000000000000000000000000000027effffffffffffffffffffffffffffffffffffffffffffffffffffffffffffff1916101580156124f55750605a7f01000000000000000000000000000000000000000000000000000000000000000283826018811015156124ad57fe5b1a7f0100000000000000000000000000000000000000000000000000000000000000027effffffffffffffffffffffffffffffffffffffffffffffffffffffffffffff191611155b156125035760009150612515565b8080600101915050612369565b600191505b50919050565b828054600181600116156101000203166002900490600052602060002090601f016020900481019282601f1061255c57805160ff191683800117855561258a565b8280016001018555821561258a579182015b8281111561258957825182559160200191906001019061256e565b5b509050612597919061266a565b5090565b828054600181600116156101000203166002900490600052602060002090601f016020900481019282601f106125d45780548555612611565b8280016001018555821561261157600052602060002091601f016020900482015b828111156126105782548255916001019190600101906125f5565b5b50905061261e919061266a565b5090565b50805460018160011615610100020316600290046000825580601f106126485750612667565b601f016020900490600052602060002090810190612666919061266a565b5b50565b61268c91905b80821115612688576000816000905550600101612670565b5090565b905600a165627a7a72305820c2316fa5f53c0bd1e943d7ba573e20db476f3a3e5493cde70d4a7689d1d6f5680029",
  "source": "pragma solidity ^0.4.18;\r\n\r\ncontract ScatterReservation {\r\n\r\n    // STRUCTS\r\n    // ---------------------------------\r\n    struct Reservation {\r\n        uint id;\r\n        bytes1 entityType;\r\n        bytes24 name;\r\n        bytes publicKey;\r\n        uint priceReservedAt;\r\n        bool transferring;\r\n    }\r\n\r\n    struct Bid {\r\n        bytes publicKey;\r\n        uint price;\r\n        uint timestamp;\r\n        bool transferring;\r\n    }\r\n\r\n\r\n    // STATE VARIABLES\r\n    // ---------------------------------\r\n    address private EOS;\r\n    uint private bidTimeout = 2 days;\r\n\r\n    address private owner;\r\n    address private signatory;\r\n    uint public reservationPrice;\r\n\r\n    mapping (uint => address) private reservers;\r\n    mapping (uint => Reservation) private reservations;\r\n\r\n    mapping (uint => address) private bidders;\r\n    mapping (uint => Bid) private bids;\r\n    mapping (uint => uint) private lastSoldFor;\r\n\r\n    mapping (bytes24 => uint) private names;\r\n\r\n    uint private atomicResId;\r\n    bool private chainLaunched;\r\n\r\n    uint transferrable = 0;\r\n\r\n    // CONSTRUCTOR\r\n    // ---------------------------------\r\n    function ScatterReservation(address _eos) public {\r\n        EOS = _eos;\r\n        owner = msg.sender;\r\n        chainLaunched = false;\r\n\r\n        // Starting at one to be able to force reserve names\r\n        atomicResId = 1;\r\n\r\n        // EOS price to reserve\r\n        reservationPrice = 1000000000000000000;\r\n    }\r\n\r\n    // EVENTS\r\n    // ---------------------------------\r\n    event EmitReservation(uint reservationId, bytes24 name, bytes pkey, address eth);\r\n    event EmitBid(uint reservationId, bytes pkey, uint price, address eth);\r\n    event EmitUnBid(uint reservationId, uint price, address bidder);\r\n    event EmitSell(uint reservationId, uint price, bytes pkey, address eth);\r\n\r\n    // MODIFIERS\r\n    // ---------------------------------\r\n    modifier only(address _address){\r\n      require(msg.sender == _address || owner == msg.sender);\r\n      _;\r\n    }\r\n\r\n    modifier unlaunched() {\r\n      require(!chainLaunched);\r\n      _;\r\n    }\r\n\r\n    // READ ONLY\r\n    // ---------------------------------\r\n    function currentId()                              public constant returns (uint) { return atomicResId; }\r\n    function exists(bytes24 name)                     public constant returns (bool) { return names[name] > 0; }\r\n    function reservationOwner(uint rId)               public constant returns (address) { return reservers[rId]; }\r\n    function bidOwner(uint rId)                       public constant returns (address) { return bidders[rId]; }\r\n    function getSignatory()                           public constant returns (address) { return signatory; }\r\n    function lastPrice(uint rId)                      public constant returns (uint) { return lastSoldFor[rId]; }\r\n    function getTransferrable()                       public constant only(signatory) returns (uint) { return transferrable; }\r\n\r\n    // WRITE\r\n    // ---------------------------------\r\n    function() public payable {}\r\n    function setSignatory(address _signatory)         public only(0x0) { signatory = _signatory; }\r\n    function setChainLaunched(bool _launched)         public only(signatory) { chainLaunched = _launched; }\r\n    function setEOSAddress(address _address)          public only(signatory) { EOS = _address; }\r\n    function setReservationPrice(uint _price)         public only(signatory) { reservationPrice = _price; }\r\n    function setBidTimeout(uint timeout)              public only(signatory) { bidTimeout = timeout; }\r\n    function transferOut(address to, uint amount)     public only(signatory) {\r\n      if(amount < transferrable){\r\n        transferrable -= amount;\r\n        if(!to.send(amount)) transferrable += amount;\r\n      }\r\n    }\r\n\r\n    function forceReservedNames(bytes24[] _names)   public only(signatory) {\r\n      for (uint i = 0; i < _names.length; i++)\r\n          names[_names[i]] = 1;\r\n    }\r\n\r\n    function reserve(bytes24 name, bytes pkey) public unlaunched {\r\n        require(validReservation(name,pkey));\r\n        require(!exists(name));\r\n        require(takeEOS(reservationPrice));\r\n        atomicResId++;\r\n\r\n        names[name] = atomicResId;\r\n        reservers[atomicResId] = msg.sender;\r\n        reservations[atomicResId] = Reservation(atomicResId, 0, name, pkey, reservationPrice, false);\r\n\r\n        EmitReservation(atomicResId, name, pkey, msg.sender);\r\n    }\r\n\r\n    function bid(uint rId, bytes pkey) public payable unlaunched {\r\n        assert(reservers[rId] != msg.sender);\r\n        assert(bidders[rId] != msg.sender);\r\n        require(msg.value >= 10000000000000000);\r\n        require(reservations[rId].id > 0);\r\n        require(validPkey(pkey));\r\n        require(!equalBytes(reservations[rId].publicKey, pkey));\r\n\r\n        if(lastSoldFor[rId] > 0) require(lastSoldFor[rId] < msg.value);\r\n        if(bids[rId].price > 0) {\r\n          require(bids[rId].price < msg.value);\r\n          require(!bids[rId].transferring);\r\n          bids[rId].transferring = true;\r\n          bidders[rId].transfer(bids[rId].price);\r\n        }\r\n\r\n        bidders[rId] = msg.sender;\r\n        bids[rId] = Bid(pkey, msg.value, now, false);\r\n        EmitBid(rId, pkey, msg.value, msg.sender);\r\n    }\r\n\r\n    function unBid(uint rId) public {\r\n        assert(bidders[rId] == msg.sender);\r\n        require(bids[rId].timestamp >= now + bidTimeout);\r\n\r\n        uint price = bids[rId].price;\r\n        address bidder = bidders[rId];\r\n\r\n        delete bidders[rId];\r\n        delete bids[rId];\r\n\r\n        bidder.transfer(price);\r\n\r\n        EmitUnBid(rId, price, msg.sender);\r\n    }\r\n\r\n    function sell(uint rId) public unlaunched {\r\n        assert(reservations[rId].id > 0);\r\n        assert(reservers[rId] == msg.sender);\r\n        assert(!reservations[rId].transferring);\r\n        require(bids[rId].price > 0);\r\n\r\n        reservations[rId].transferring = true;\r\n        if(!reservers[rId].send(bids[rId].price  - (bids[rId].price/10))){\r\n            reservations[rId].transferring = false;\r\n            return;\r\n        }\r\n\r\n        transferrable += bids[rId].price/10;\r\n\r\n        // Changing ownership\r\n        reservations[rId].publicKey = bids[rId].publicKey;\r\n        reservers[rId] = bidders[rId];\r\n        lastSoldFor[rId] = bids[rId].price;\r\n\r\n        delete bids[rId];\r\n        delete bidders[rId];\r\n\r\n        reservations[rId].transferring = false;\r\n        EmitSell(rId, lastSoldFor[rId], reservations[rId].publicKey, reservers[rId]);\r\n    }\r\n\r\n\r\n\r\n\r\n    // EOS\r\n    // ---------------------------------\r\n    function takeEOS(uint price) internal returns(bool) {\r\n        require(price <= ERC20(EOS).allowance(msg.sender, this));\r\n        if(!ERC20(EOS).transferFrom(msg.sender, this, price)){\r\n            revert();\r\n            return false;\r\n        }\r\n        return true;\r\n    }\r\n\r\n    function giveEOS(address to, uint price) internal returns(bool) {\r\n        if(!ERC20(EOS).transfer(to, price)){\r\n            revert();\r\n            return false;\r\n        }\r\n        return true;\r\n    }\r\n\r\n\r\n\r\n    // HELPERS\r\n    // ---------------------------------\r\n    function validReservation(bytes24 name, bytes pkey) internal pure returns (bool){\r\n        require(nameLength(name) > 2 && nameLength(name) <= 20);\r\n        require(isLower(name));\r\n        validPkey(pkey);\r\n        return true;\r\n    }\r\n\r\n    function validPkey(bytes pkey) internal pure returns (bool){\r\n        assert(pkey.length > 30);\r\n        return true;\r\n    }\r\n\r\n    function equalBytes(bytes a, bytes b) internal pure returns (bool) {\r\n        return keccak256(a) == keccak256(b);\r\n    }\r\n\r\n    function isLower(bytes24 name) internal pure returns(bool){\r\n      for (uint i = 0; i < name.length; i++) {\r\n        if(name[i] == 32) return false;\r\n  \t\t\tif (name[i] >= 65 && name[i] <= 90) return false;\r\n  \t\t}\r\n      return true;\r\n    }\r\n\r\n    function nameLength(bytes24 self) internal pure returns (uint length) {\r\n      uint ret;\r\n        if (self == 0) return 0;\r\n        if (self & 0xffffffffffffffffffffffffffffffff == 0) {\r\n            ret += 16;\r\n            self = bytes24(uint(self) / 0x100000000000000000000000000000000);\r\n        }\r\n        if (self & 0xffffffffffffffff == 0) {\r\n            ret += 8;\r\n            self = bytes24(uint(self) / 0x10000000000000000);\r\n        }\r\n        if (self & 0xffffffff == 0) {\r\n            ret += 4;\r\n            self = bytes24(uint(self) / 0x100000000);\r\n        }\r\n        if (self & 0xffff == 0) {\r\n            ret += 2;\r\n            self = bytes24(uint(self) / 0x10000);\r\n        }\r\n        if (self & 0xff == 0) ret += 1;\r\n        return 24 - ret;\r\n    }\r\n\r\n}\r\n\r\ncontract ERC20 {\r\n    function totalSupply() public constant returns (uint supply);\r\n    function balanceOf( address who ) public constant returns (uint value);\r\n    function allowance( address owner, address spender ) public constant returns (uint _allowance);\r\n\r\n    function transfer( address to, uint value) public returns (bool ok);\r\n    function transferFrom( address from, address to, uint value) public returns (bool ok);\r\n    function approve( address spender, uint value ) public returns (bool ok);\r\n\r\n    event Transfer( address indexed from, address indexed to, uint value);\r\n    event Approval( address indexed owner, address indexed spender, uint value);\r\n}\r\n",
  "sourcePath": "D:\\work\\Contracts\\scatter_reservations\\contracts\\ScatterReservation.sol",
  "compiler": {
    "name": "solc",
    "version": "0.4.19+commit.c4cbbb05.Emscripten.clang"
  },
  "schemaVersion": "2.0.0",
  "updatedAt": "2018-03-14T01:03:10.563Z"
}