{
  "contractName": "ScatterReservation",
  "abi": [
    {
      "constant": true,
      "inputs": [],
      "name": "reservationPrice",
      "outputs": [
        {
          "name": "",
          "type": "uint256"
        }
      ],
      "payable": false,
      "stateMutability": "view",
      "type": "function"
    },
    {
      "inputs": [
        {
          "name": "_eos",
          "type": "address"
        }
      ],
      "payable": false,
      "stateMutability": "nonpayable",
      "type": "constructor"
    },
    {
      "payable": true,
      "stateMutability": "payable",
      "type": "fallback"
    },
    {
      "anonymous": false,
      "inputs": [
        {
          "indexed": false,
          "name": "reservationId",
          "type": "uint256"
        },
        {
          "indexed": false,
          "name": "name",
          "type": "bytes24"
        },
        {
          "indexed": false,
          "name": "pkey",
          "type": "bytes"
        },
        {
          "indexed": false,
          "name": "eth",
          "type": "address"
        }
      ],
      "name": "EmitReservation",
      "type": "event"
    },
    {
      "anonymous": false,
      "inputs": [
        {
          "indexed": false,
          "name": "reservationId",
          "type": "uint256"
        },
        {
          "indexed": false,
          "name": "pkey",
          "type": "bytes"
        },
        {
          "indexed": false,
          "name": "price",
          "type": "uint256"
        },
        {
          "indexed": false,
          "name": "eth",
          "type": "address"
        }
      ],
      "name": "EmitBid",
      "type": "event"
    },
    {
      "anonymous": false,
      "inputs": [
        {
          "indexed": false,
          "name": "reservationId",
          "type": "uint256"
        },
        {
          "indexed": false,
          "name": "price",
          "type": "uint256"
        },
        {
          "indexed": false,
          "name": "bidder",
          "type": "address"
        }
      ],
      "name": "EmitUnBid",
      "type": "event"
    },
    {
      "anonymous": false,
      "inputs": [
        {
          "indexed": false,
          "name": "reservationId",
          "type": "uint256"
        },
        {
          "indexed": false,
          "name": "price",
          "type": "uint256"
        },
        {
          "indexed": false,
          "name": "pkey",
          "type": "bytes"
        },
        {
          "indexed": false,
          "name": "eth",
          "type": "address"
        }
      ],
      "name": "EmitSell",
      "type": "event"
    },
    {
      "constant": true,
      "inputs": [],
      "name": "currentId",
      "outputs": [
        {
          "name": "",
          "type": "uint256"
        }
      ],
      "payable": false,
      "stateMutability": "view",
      "type": "function"
    },
    {
      "constant": true,
      "inputs": [
        {
          "name": "name",
          "type": "bytes24"
        }
      ],
      "name": "exists",
      "outputs": [
        {
          "name": "",
          "type": "bool"
        }
      ],
      "payable": false,
      "stateMutability": "view",
      "type": "function"
    },
    {
      "constant": true,
      "inputs": [
        {
          "name": "rId",
          "type": "uint256"
        }
      ],
      "name": "reservationOwner",
      "outputs": [
        {
          "name": "",
          "type": "address"
        }
      ],
      "payable": false,
      "stateMutability": "view",
      "type": "function"
    },
    {
      "constant": true,
      "inputs": [
        {
          "name": "rId",
          "type": "uint256"
        }
      ],
      "name": "bidOwner",
      "outputs": [
        {
          "name": "",
          "type": "address"
        }
      ],
      "payable": false,
      "stateMutability": "view",
      "type": "function"
    },
    {
      "constant": true,
      "inputs": [],
      "name": "getSignatory",
      "outputs": [
        {
          "name": "",
          "type": "address"
        }
      ],
      "payable": false,
      "stateMutability": "view",
      "type": "function"
    },
    {
      "constant": true,
      "inputs": [
        {
          "name": "rId",
          "type": "uint256"
        }
      ],
      "name": "lastPrice",
      "outputs": [
        {
          "name": "",
          "type": "uint256"
        }
      ],
      "payable": false,
      "stateMutability": "view",
      "type": "function"
    },
    {
      "constant": true,
      "inputs": [],
      "name": "getTransferrable",
      "outputs": [
        {
          "name": "",
          "type": "uint256"
        }
      ],
      "payable": false,
      "stateMutability": "view",
      "type": "function"
    },
    {
      "constant": true,
      "inputs": [],
      "name": "eosBalance",
      "outputs": [
        {
          "name": "",
          "type": "uint256"
        }
      ],
      "payable": false,
      "stateMutability": "view",
      "type": "function"
    },
    {
      "constant": false,
      "inputs": [
        {
          "name": "_signatory",
          "type": "address"
        }
      ],
      "name": "setSignatory",
      "outputs": [],
      "payable": false,
      "stateMutability": "nonpayable",
      "type": "function"
    },
    {
      "constant": false,
      "inputs": [
        {
          "name": "_launched",
          "type": "bool"
        }
      ],
      "name": "setChainLaunched",
      "outputs": [],
      "payable": false,
      "stateMutability": "nonpayable",
      "type": "function"
    },
    {
      "constant": false,
      "inputs": [
        {
          "name": "_address",
          "type": "address"
        }
      ],
      "name": "setEOSAddress",
      "outputs": [],
      "payable": false,
      "stateMutability": "nonpayable",
      "type": "function"
    },
    {
      "constant": false,
      "inputs": [
        {
          "name": "_price",
          "type": "uint256"
        }
      ],
      "name": "setReservationPrice",
      "outputs": [],
      "payable": false,
      "stateMutability": "nonpayable",
      "type": "function"
    },
    {
      "constant": false,
      "inputs": [
        {
          "name": "timeout",
          "type": "uint256"
        }
      ],
      "name": "setBidTimeout",
      "outputs": [],
      "payable": false,
      "stateMutability": "nonpayable",
      "type": "function"
    },
    {
      "constant": false,
      "inputs": [
        {
          "name": "to",
          "type": "address"
        },
        {
          "name": "amount",
          "type": "uint256"
        }
      ],
      "name": "transferEthOut",
      "outputs": [],
      "payable": false,
      "stateMutability": "nonpayable",
      "type": "function"
    },
    {
      "constant": false,
      "inputs": [
        {
          "name": "to",
          "type": "address"
        },
        {
          "name": "amount",
          "type": "uint256"
        }
      ],
      "name": "transferEosOut",
      "outputs": [],
      "payable": false,
      "stateMutability": "nonpayable",
      "type": "function"
    },
    {
      "constant": false,
      "inputs": [
        {
          "name": "_names",
          "type": "bytes24[]"
        }
      ],
      "name": "forceReservedNames",
      "outputs": [],
      "payable": false,
      "stateMutability": "nonpayable",
      "type": "function"
    },
    {
      "constant": false,
      "inputs": [
        {
          "name": "name",
          "type": "bytes24"
        },
        {
          "name": "pkey",
          "type": "bytes"
        }
      ],
      "name": "reserve",
      "outputs": [],
      "payable": false,
      "stateMutability": "nonpayable",
      "type": "function"
    },
    {
      "constant": false,
      "inputs": [
        {
          "name": "rId",
          "type": "uint256"
        },
        {
          "name": "pkey",
          "type": "bytes"
        }
      ],
      "name": "bid",
      "outputs": [],
      "payable": true,
      "stateMutability": "payable",
      "type": "function"
    },
    {
      "constant": false,
      "inputs": [
        {
          "name": "rId",
          "type": "uint256"
        }
      ],
      "name": "unBid",
      "outputs": [],
      "payable": false,
      "stateMutability": "nonpayable",
      "type": "function"
    },
    {
      "constant": false,
      "inputs": [
        {
          "name": "rId",
          "type": "uint256"
        }
      ],
      "name": "sell",
      "outputs": [],
      "payable": false,
      "stateMutability": "nonpayable",
      "type": "function"
    }
  ],
  "bytecode": "0x60606040526202a3006001556000600d55341561001b57600080fd5b604051602080612bd783398101604052808051906020019091905050806000806101000a81548173ffffffffffffffffffffffffffffffffffffffff021916908373ffffffffffffffffffffffffffffffffffffffff16021790555033600260006101000a81548173ffffffffffffffffffffffffffffffffffffffff021916908373ffffffffffffffffffffffffffffffffffffffff1602179055506000600c60006101000a81548160ff0219169083151502179055506001600b81905550670de0b6b3a764000060048190555050612add806100fa6000396000f30060606040526004361061011c576000357c0100000000000000000000000000000000000000000000000000000000900463ffffffff168062fd94cb1461011e57806302488cc514610155578063179fdc6a146101b85780631d2d6e70146101e15780635c4d34191461021a57806374c321ad146102435780638e7c6a531461026657806395a09972146102a8578063a3615bc014610302578063a3cac2bb14610365578063a8357f03146103a7578063af426f1114610418578063bf94425014610441578063c93280c714610466578063e00dd16114610489578063e1fb193e146104b2578063e4849b321461050d578063e58dc83414610530578063e786746f14610553578063ebcc98481461058c578063fa3e00d5146105e1575b005b341561012957600080fd5b61013f6004808035906020019091905050610627565b6040518082815260200191505060405180910390f35b341561016057600080fd5b6101766004808035906020019091905050610644565b604051808273ffffffffffffffffffffffffffffffffffffffff1673ffffffffffffffffffffffffffffffffffffffff16815260200191505060405180910390f35b34156101c357600080fd5b6101cb610681565b6040518082815260200191505060405180910390f35b34156101ec57600080fd5b610218600480803573ffffffffffffffffffffffffffffffffffffffff16906020019091905050610741565b005b341561022557600080fd5b61022d61081a565b6040518082815260200191505060405180910390f35b341561024e57600080fd5b61026460048080359060200190919050506109d8565b005b341561027157600080fd5b6102a6600480803573ffffffffffffffffffffffffffffffffffffffff16906020019091908035906020019091905050610a98565b005b34156102b357600080fd5b610300600480803590602001908201803590602001908080602002602001604051908101604052809392919081815260200183836020028082843782019150505050505091905050610b7d565b005b341561030d57600080fd5b6103236004808035906020019091905050610c9a565b604051808273ffffffffffffffffffffffffffffffffffffffff1673ffffffffffffffffffffffffffffffffffffffff16815260200191505060405180910390f35b341561037057600080fd5b6103a5600480803573ffffffffffffffffffffffffffffffffffffffff16906020019091908035906020019091905050610cd7565b005b34156103b257600080fd5b610416600480803567ffffffffffffffff191690602001909190803590602001908201803590602001908080601f01602080910402602001604051908101604052809392919081815260200183838082843782019150505050505091905050610df8565b005b341561042357600080fd5b61042b611156565b6040518082815260200191505060405180910390f35b341561044c57600080fd5b6104646004808035151590602001909190505061115c565b005b341561047157600080fd5b610487600480803590602001909190505061122f565b005b341561049457600080fd5b61049c6112ef565b6040518082815260200191505060405180910390f35b61050b600480803590602001909190803590602001908201803590602001908080601f016020809104026020016040519081016040528093929190818152602001838380828437820191505050505050919050506112f9565b005b341561051857600080fd5b61052e600480803590602001909190505061182a565b005b341561053b57600080fd5b6105516004808035906020019091905050611d6b565b005b341561055e57600080fd5b61058a600480803573ffffffffffffffffffffffffffffffffffffffff16906020019091905050611f88565b005b341561059757600080fd5b61059f612081565b604051808273ffffffffffffffffffffffffffffffffffffffff1673ffffffffffffffffffffffffffffffffffffffff16815260200191505060405180910390f35b34156105ec57600080fd5b61060d600480803567ffffffffffffffff19169060200190919050506120ab565b604051808215151515815260200191505060405180910390f35b600060096000838152602001908152602001600020549050919050565b60006005600083815260200190815260200160002060009054906101000a900473ffffffffffffffffffffffffffffffffffffffff169050919050565b6000600360009054906101000a900473ffffffffffffffffffffffffffffffffffffffff168073ffffffffffffffffffffffffffffffffffffffff163373ffffffffffffffffffffffffffffffffffffffff16148061072d57503373ffffffffffffffffffffffffffffffffffffffff16600260009054906101000a900473ffffffffffffffffffffffffffffffffffffffff1673ffffffffffffffffffffffffffffffffffffffff16145b151561073857600080fd5b600d5491505090565b60008073ffffffffffffffffffffffffffffffffffffffff163373ffffffffffffffffffffffffffffffffffffffff1614806107ca57503373ffffffffffffffffffffffffffffffffffffffff16600260009054906101000a900473ffffffffffffffffffffffffffffffffffffffff1673ffffffffffffffffffffffffffffffffffffffff16145b15156107d557600080fd5b81600360006101000a81548173ffffffffffffffffffffffffffffffffffffffff021916908373ffffffffffffffffffffffffffffffffffffffff1602179055505050565b6000600360009054906101000a900473ffffffffffffffffffffffffffffffffffffffff168073ffffffffffffffffffffffffffffffffffffffff163373ffffffffffffffffffffffffffffffffffffffff1614806108c657503373ffffffffffffffffffffffffffffffffffffffff16600260009054906101000a900473ffffffffffffffffffffffffffffffffffffffff1673ffffffffffffffffffffffffffffffffffffffff16145b15156108d157600080fd5b6000809054906101000a900473ffffffffffffffffffffffffffffffffffffffff1673ffffffffffffffffffffffffffffffffffffffff166370a08231600260009054906101000a900473ffffffffffffffffffffffffffffffffffffffff166000604051602001526040518263ffffffff167c0100000000000000000000000000000000000000000000000000000000028152600401808273ffffffffffffffffffffffffffffffffffffffff1673ffffffffffffffffffffffffffffffffffffffff168152602001915050602060405180830381600087803b15156109b757600080fd5b6102c65a03f115156109c857600080fd5b5050506040518051905091505090565b600360009054906101000a900473ffffffffffffffffffffffffffffffffffffffff168073ffffffffffffffffffffffffffffffffffffffff163373ffffffffffffffffffffffffffffffffffffffff161480610a8257503373ffffffffffffffffffffffffffffffffffffffff16600260009054906101000a900473ffffffffffffffffffffffffffffffffffffffff1673ffffffffffffffffffffffffffffffffffffffff16145b1515610a8d57600080fd5b816001819055505050565b600360009054906101000a900473ffffffffffffffffffffffffffffffffffffffff168073ffffffffffffffffffffffffffffffffffffffff163373ffffffffffffffffffffffffffffffffffffffff161480610b4257503373ffffffffffffffffffffffffffffffffffffffff16600260009054906101000a900473ffffffffffffffffffffffffffffffffffffffff1673ffffffffffffffffffffffffffffffffffffffff16145b1515610b4d57600080fd5b81610b5661081a565b10151515610b6357600080fd5b610b6d83836120e0565b1515610b7857600080fd5b505050565b6000600360009054906101000a900473ffffffffffffffffffffffffffffffffffffffff168073ffffffffffffffffffffffffffffffffffffffff163373ffffffffffffffffffffffffffffffffffffffff161480610c2957503373ffffffffffffffffffffffffffffffffffffffff16600260009054906101000a900473ffffffffffffffffffffffffffffffffffffffff1673ffffffffffffffffffffffffffffffffffffffff16145b1515610c3457600080fd5b600091505b8251821015610c95576001600a60008585815181101515610c5657fe5b9060200190602002015167ffffffffffffffff191667ffffffffffffffff19168152602001908152602001600020819055508180600101925050610c39565b505050565b60006007600083815260200190815260200160002060009054906101000a900473ffffffffffffffffffffffffffffffffffffffff169050919050565b600360009054906101000a900473ffffffffffffffffffffffffffffffffffffffff168073ffffffffffffffffffffffffffffffffffffffff163373ffffffffffffffffffffffffffffffffffffffff161480610d8157503373ffffffffffffffffffffffffffffffffffffffff16600260009054906101000a900473ffffffffffffffffffffffffffffffffffffffff1673ffffffffffffffffffffffffffffffffffffffff16145b1515610d8c57600080fd5b600d54821015610df35781600d600082825403925050819055508273ffffffffffffffffffffffffffffffffffffffff166108fc839081150290604051600060405180830381858888f193505050501515610df25781600d600082825401925050819055505b5b505050565b600c60009054906101000a900460ff16151515610e1457600080fd5b610e1e82826121de565b1515610e2957600080fd5b610e32826120ab565b151515610e3e57600080fd5b610e49600454612234565b1515610e5457600080fd5b600b60008154809291906001019190505550600b54600a60008467ffffffffffffffff191667ffffffffffffffff19168152602001908152602001600020819055503360056000600b54815260200190815260200160002060006101000a81548173ffffffffffffffffffffffffffffffffffffffff021916908373ffffffffffffffffffffffffffffffffffffffff16021790555060c060405190810160405280600b54815260200160007f0100000000000000000000000000000000000000000000000000000000000000027effffffffffffffffffffffffffffffffffffffffffffffffffffffffffffff191681526020018367ffffffffffffffff1916815260200182815260200160045481526020016000151581525060066000600b5481526020019081526020016000206000820151816000015560208201518160010160006101000a81548160ff02191690837f01000000000000000000000000000000000000000000000000000000000000009004021790555060408201518160010160016101000a81548177ffffffffffffffffffffffffffffffffffffffffffffffff02191690836801000000000000000090040217905550606082015181600201908051906020019061102c92919061293d565b506080820151816003015560a08201518160040160006101000a81548160ff0219169083151502179055509050507f4a56bce5136d37ddc9527cf49a085a6870f0e92ed7f7db4ddb6c519079e94213600b54838333604051808581526020018467ffffffffffffffff191667ffffffffffffffff19168152602001806020018373ffffffffffffffffffffffffffffffffffffffff1673ffffffffffffffffffffffffffffffffffffffff168152602001828103825284818151815260200191508051906020019080838360005b838110156111155780820151818401526020810190506110fa565b50505050905090810190601f1680156111425780820380516001836020036101000a031916815260200191505b509550505050505060405180910390a15050565b60045481565b600360009054906101000a900473ffffffffffffffffffffffffffffffffffffffff168073ffffffffffffffffffffffffffffffffffffffff163373ffffffffffffffffffffffffffffffffffffffff16148061120657503373ffffffffffffffffffffffffffffffffffffffff16600260009054906101000a900473ffffffffffffffffffffffffffffffffffffffff1673ffffffffffffffffffffffffffffffffffffffff16145b151561121157600080fd5b81600c60006101000a81548160ff0219169083151502179055505050565b600360009054906101000a900473ffffffffffffffffffffffffffffffffffffffff168073ffffffffffffffffffffffffffffffffffffffff163373ffffffffffffffffffffffffffffffffffffffff1614806112d957503373ffffffffffffffffffffffffffffffffffffffff16600260009054906101000a900473ffffffffffffffffffffffffffffffffffffffff1673ffffffffffffffffffffffffffffffffffffffff16145b15156112e457600080fd5b816004819055505050565b6000600b54905090565b600c60009054906101000a900460ff1615151561131557600080fd5b3373ffffffffffffffffffffffffffffffffffffffff166005600084815260200190815260200160002060009054906101000a900473ffffffffffffffffffffffffffffffffffffffff1673ffffffffffffffffffffffffffffffffffffffff161415151561138057fe5b3373ffffffffffffffffffffffffffffffffffffffff166007600084815260200190815260200160002060009054906101000a900473ffffffffffffffffffffffffffffffffffffffff1673ffffffffffffffffffffffffffffffffffffffff16141515156113eb57fe5b662386f26fc10000341015151561140157600080fd5b6000600660008481526020019081526020016000206000015411151561142657600080fd5b61142f81612486565b151561143a57600080fd5b6114f2600660008481526020019081526020016000206002018054600181600116156101000203166002900480601f0160208091040260200160405190810160405280929190818152602001828054600181600116156101000203166002900480156114e75780601f106114bc576101008083540402835291602001916114e7565b820191906000526020600020905b8154815290600101906020018083116114ca57829003601f168201915b50505050508261249e565b1515156114fe57600080fd5b60006009600084815260200190815260200160002054111561153c5734600960008481526020019081526020016000205410151561153b57600080fd5b5b6000600860008481526020019081526020016000206001015411156116685734600860008481526020019081526020016000206001015410151561157f57600080fd5b6008600083815260200190815260200160002060030160009054906101000a900460ff161515156115af57600080fd5b60016008600084815260200190815260200160002060030160006101000a81548160ff0219169083151502179055506007600083815260200190815260200160002060009054906101000a900473ffffffffffffffffffffffffffffffffffffffff1673ffffffffffffffffffffffffffffffffffffffff166108fc60086000858152602001908152602001600020600101549081150290604051600060405180830381858888f19350505050151561166757600080fd5b5b336007600084815260200190815260200160002060006101000a81548173ffffffffffffffffffffffffffffffffffffffff021916908373ffffffffffffffffffffffffffffffffffffffff1602179055506080604051908101604052808281526020013481526020014281526020016000151581525060086000848152602001908152602001600020600082015181600001908051906020019061170e92919061293d565b50602082015181600101556040820151816002015560608201518160030160006101000a81548160ff0219169083151502179055509050507f50fb67817ea06d34caab59f1590d7844befa743e215b6f180f1f4dc51cabb3bc8282343360405180858152602001806020018481526020018373ffffffffffffffffffffffffffffffffffffffff1673ffffffffffffffffffffffffffffffffffffffff168152602001828103825285818151815260200191508051906020019080838360005b838110156117e95780820151818401526020810190506117ce565b50505050905090810190601f1680156118165780820380516001836020036101000a031916815260200191505b509550505050505060405180910390a15050565b600c60009054906101000a900460ff1615151561184657600080fd5b6000600660008381526020019081526020016000206000015411151561186857fe5b3373ffffffffffffffffffffffffffffffffffffffff166005600083815260200190815260200160002060009054906101000a900473ffffffffffffffffffffffffffffffffffffffff1673ffffffffffffffffffffffffffffffffffffffff161415156118d257fe5b6006600082815260200190815260200160002060040160009054906101000a900460ff161515156118ff57fe5b6000600860008381526020019081526020016000206001015411151561192457600080fd5b60016006600083815260200190815260200160002060040160006101000a81548160ff0219169083151502179055506005600082815260200190815260200160002060009054906101000a900473ffffffffffffffffffffffffffffffffffffffff1673ffffffffffffffffffffffffffffffffffffffff166108fc600a60086000858152602001908152602001600020600101548115156119c257fe5b046008600085815260200190815260200160002060010154039081150290604051600060405180830381858888f193505050501515611a2f5760006006600083815260200190815260200160002060040160006101000a81548160ff021916908315150217905550611d68565b600a6008600083815260200190815260200160002060010154811515611a5157fe5b04600d6000828254019250508190555060086000828152602001908152602001600020600001600660008381526020019081526020016000206002019080546001816001161561010002031660029004611aac9291906129bd565b506007600082815260200190815260200160002060009054906101000a900473ffffffffffffffffffffffffffffffffffffffff166005600083815260200190815260200160002060006101000a81548173ffffffffffffffffffffffffffffffffffffffff021916908373ffffffffffffffffffffffffffffffffffffffff160217905550600860008281526020019081526020016000206001015460096000838152602001908152602001600020819055506008600082815260200190815260200160002060008082016000611b849190612a44565b600182016000905560028201600090556003820160006101000a81549060ff021916905550506007600082815260200190815260200160002060006101000a81549073ffffffffffffffffffffffffffffffffffffffff021916905560006006600083815260200190815260200160002060040160006101000a81548160ff0219169083151502179055507f5ae4bf4bfb336f4bd03b95afba939a3db09cf8f2ec082830e9c829a126cd917b816009600084815260200190815260200160002054600660008581526020019081526020016000206002016005600086815260200190815260200160002060009054906101000a900473ffffffffffffffffffffffffffffffffffffffff1660405180858152602001848152602001806020018373ffffffffffffffffffffffffffffffffffffffff1673ffffffffffffffffffffffffffffffffffffffff168152602001828103825284818154600181600116156101000203166002900481526020019150805460018160011615610100020316600290048015611d565780601f10611d2b57610100808354040283529160200191611d56565b820191906000526020600020905b815481529060010190602001808311611d3957829003601f168201915b50509550505050505060405180910390a15b50565b6000803373ffffffffffffffffffffffffffffffffffffffff166007600085815260200190815260200160002060009054906101000a900473ffffffffffffffffffffffffffffffffffffffff1673ffffffffffffffffffffffffffffffffffffffff16141515611dd857fe5b6001544201600860008581526020019081526020016000206002015410151515611e0157600080fd5b600860008481526020019081526020016000206001015491506007600084815260200190815260200160002060009054906101000a900473ffffffffffffffffffffffffffffffffffffffff1690506007600084815260200190815260200160002060006101000a81549073ffffffffffffffffffffffffffffffffffffffff02191690556008600084815260200190815260200160002060008082016000611eaa9190612a44565b600182016000905560028201600090556003820160006101000a81549060ff021916905550508073ffffffffffffffffffffffffffffffffffffffff166108fc839081150290604051600060405180830381858888f193505050501515611f1057600080fd5b7f1985c40a87db0c7e3af9affd6bcbba48db01c478c9ce122f62f7510a39c62b52838333604051808481526020018381526020018273ffffffffffffffffffffffffffffffffffffffff1673ffffffffffffffffffffffffffffffffffffffff168152602001935050505060405180910390a1505050565b600360009054906101000a900473ffffffffffffffffffffffffffffffffffffffff168073ffffffffffffffffffffffffffffffffffffffff163373ffffffffffffffffffffffffffffffffffffffff16148061203257503373ffffffffffffffffffffffffffffffffffffffff16600260009054906101000a900473ffffffffffffffffffffffffffffffffffffffff1673ffffffffffffffffffffffffffffffffffffffff16145b151561203d57600080fd5b816000806101000a81548173ffffffffffffffffffffffffffffffffffffffff021916908373ffffffffffffffffffffffffffffffffffffffff1602179055505050565b6000600360009054906101000a900473ffffffffffffffffffffffffffffffffffffffff16905090565b600080600a60008467ffffffffffffffff191667ffffffffffffffff1916815260200190815260200160002054119050919050565b60008060009054906101000a900473ffffffffffffffffffffffffffffffffffffffff1673ffffffffffffffffffffffffffffffffffffffff1663a9059cbb84846000604051602001526040518363ffffffff167c0100000000000000000000000000000000000000000000000000000000028152600401808373ffffffffffffffffffffffffffffffffffffffff1673ffffffffffffffffffffffffffffffffffffffff16815260200182815260200192505050602060405180830381600087803b15156121ae57600080fd5b6102c65a03f115156121bf57600080fd5b5050506040518051905015156121d457600080fd5b6001905092915050565b600060026121eb84612577565b118015612201575060146121fe84612577565b11155b151561220c57600080fd5b61221583612783565b151561222057600080fd5b61222982612486565b506001905092915050565b60008060009054906101000a900473ffffffffffffffffffffffffffffffffffffffff1673ffffffffffffffffffffffffffffffffffffffff1663dd62ed3e33306000604051602001526040518363ffffffff167c0100000000000000000000000000000000000000000000000000000000028152600401808373ffffffffffffffffffffffffffffffffffffffff1673ffffffffffffffffffffffffffffffffffffffff1681526020018273ffffffffffffffffffffffffffffffffffffffff1673ffffffffffffffffffffffffffffffffffffffff16815260200192505050602060405180830381600087803b151561232e57600080fd5b6102c65a03f1151561233f57600080fd5b50505060405180519050821115151561235757600080fd5b6000809054906101000a900473ffffffffffffffffffffffffffffffffffffffff1673ffffffffffffffffffffffffffffffffffffffff166323b872dd3330856000604051602001526040518463ffffffff167c0100000000000000000000000000000000000000000000000000000000028152600401808473ffffffffffffffffffffffffffffffffffffffff1673ffffffffffffffffffffffffffffffffffffffff1681526020018373ffffffffffffffffffffffffffffffffffffffff1673ffffffffffffffffffffffffffffffffffffffff1681526020018281526020019350505050602060405180830381600087803b151561245757600080fd5b6102c65a03f1151561246857600080fd5b50505060405180519050151561247d57600080fd5b60019050919050565b6000601e825111151561249557fe5b60019050919050565b6000816040518082805190602001908083835b6020831015156124d657805182526020820191506020810190506020830392506124b1565b6001836020036101000a038019825116818451168082178552505050505050905001915050604051809103902060001916836040518082805190602001908083835b60208310151561253d5780518252602082019150602081019050602083039250612518565b6001836020036101000a03801982511681845116808217855250505050505090500191505060405180910390206000191614905092915050565b600080600068010000000000000000028367ffffffffffffffff191614156125a2576000915061277d565b600068010000000000000000026fffffffffffffffffffffffffffffffff6801000000000000000002841667ffffffffffffffff1916141561261b576010810190507001000000000000000000000000000000008368010000000000000000900481151561260c57fe5b04680100000000000000000292505b6000680100000000000000000267ffffffffffffffff6801000000000000000002841667ffffffffffffffff1916141561268457600881019050680100000000000000008368010000000000000000900481151561267557fe5b04680100000000000000000292505b6000680100000000000000000263ffffffff6801000000000000000002841667ffffffffffffffff191614156126e557600481019050640100000000836801000000000000000090048115156126d657fe5b04680100000000000000000292505b6000680100000000000000000261ffff6801000000000000000002841667ffffffffffffffff1916141561274257600281019050620100008368010000000000000000900481151561273357fe5b04680100000000000000000292505b6000680100000000000000000260ff6801000000000000000002841667ffffffffffffffff19161415612776576001810190505b8060180391505b50919050565b600080600090505b601860ff168110156129325760207f01000000000000000000000000000000000000000000000000000000000000000283826018811015156127c957fe5b1a7f0100000000000000000000000000000000000000000000000000000000000000027effffffffffffffffffffffffffffffffffffffffffffffffffffffffffffff1916141561281d5760009150612937565b60417f010000000000000000000000000000000000000000000000000000000000000002838260188110151561284f57fe5b1a7f0100000000000000000000000000000000000000000000000000000000000000027effffffffffffffffffffffffffffffffffffffffffffffffffffffffffffff1916101580156129175750605a7f01000000000000000000000000000000000000000000000000000000000000000283826018811015156128cf57fe5b1a7f0100000000000000000000000000000000000000000000000000000000000000027effffffffffffffffffffffffffffffffffffffffffffffffffffffffffffff191611155b156129255760009150612937565b808060010191505061278b565b600191505b50919050565b828054600181600116156101000203166002900490600052602060002090601f016020900481019282601f1061297e57805160ff19168380011785556129ac565b828001600101855582156129ac579182015b828111156129ab578251825591602001919060010190612990565b5b5090506129b99190612a8c565b5090565b828054600181600116156101000203166002900490600052602060002090601f016020900481019282601f106129f65780548555612a33565b82800160010185558215612a3357600052602060002091601f016020900482015b82811115612a32578254825591600101919060010190612a17565b5b509050612a409190612a8c565b5090565b50805460018160011615610100020316600290046000825580601f10612a6a5750612a89565b601f016020900490600052602060002090810190612a889190612a8c565b5b50565b612aae91905b80821115612aaa576000816000905550600101612a92565b5090565b905600a165627a7a723058200e595f63f9a6db8e4a7de73893a3e2cb91d0c8f3e06d814b7e55b0f3004b4db50029",
  "source": "pragma solidity ^0.4.18;\r\n\r\ncontract ScatterReservation {\r\n\r\n    // STRUCTS\r\n    // ---------------------------------\r\n    // ---------------------------------\r\n    // ---------------------------------\r\n    struct Reservation {\r\n        uint id;\r\n        bytes1 entityType;\r\n        bytes24 name;\r\n        bytes publicKey;\r\n        uint priceReservedAt;\r\n        bool transferring;\r\n    }\r\n\r\n    struct Bid {\r\n        bytes publicKey;\r\n        uint price;\r\n        uint timestamp;\r\n        bool transferring;\r\n    }\r\n\r\n\r\n    // STATE VARIABLES\r\n    // ---------------------------------\r\n    // ---------------------------------\r\n    // ---------------------------------\r\n    address private EOS;\r\n    uint private bidTimeout = 2 days;\r\n\r\n    address private owner;\r\n    address private signatory;\r\n    uint public reservationPrice;\r\n\r\n    mapping (uint => address) private reservers;\r\n    mapping (uint => Reservation) private reservations;\r\n\r\n    mapping (uint => address) private bidders;\r\n    mapping (uint => Bid) private bids;\r\n    mapping (uint => uint) private lastSoldFor;\r\n\r\n    mapping (bytes24 => uint) private names;\r\n\r\n    uint private atomicResId;\r\n    bool private chainLaunched;\r\n\r\n    uint transferrable = 0;\r\n\r\n    // CONSTRUCTOR\r\n    // ---------------------------------\r\n    // ---------------------------------\r\n    // ---------------------------------\r\n    function ScatterReservation(address _eos) public {\r\n        EOS = _eos;\r\n        owner = msg.sender;\r\n        chainLaunched = false;\r\n\r\n        // Starting at one to be able to force reserve names\r\n        atomicResId = 1;\r\n\r\n        // EOS price to reserve\r\n        reservationPrice = 1000000000000000000;\r\n    }\r\n\r\n    // EVENTS\r\n    // ---------------------------------\r\n    // ---------------------------------\r\n    // ---------------------------------\r\n    event EmitReservation(uint reservationId, bytes24 name, bytes pkey, address eth);\r\n    event EmitBid(uint reservationId, bytes pkey, uint price, address eth);\r\n    event EmitUnBid(uint reservationId, uint price, address bidder);\r\n    event EmitSell(uint reservationId, uint price, bytes pkey, address eth);\r\n\r\n    // MODIFIERS\r\n    // ---------------------------------\r\n    // ---------------------------------\r\n    // ---------------------------------\r\n    modifier only(address _address){\r\n      require(msg.sender == _address || owner == msg.sender);\r\n      _;\r\n    }\r\n\r\n    modifier unlaunched() {\r\n      require(!chainLaunched);\r\n      _;\r\n    }\r\n\r\n    // READ\r\n    // ---------------------------------\r\n    // ---------------------------------\r\n    // ---------------------------------\r\n    function currentId()                              public constant returns (uint) { return atomicResId; }\r\n    function exists(bytes24 name)                     public constant returns (bool) { return names[name] > 0; }\r\n    function reservationOwner(uint rId)               public constant returns (address) { return reservers[rId]; }\r\n    function bidOwner(uint rId)                       public constant returns (address) { return bidders[rId]; }\r\n    function getSignatory()                           public constant returns (address) { return signatory; }\r\n    function lastPrice(uint rId)                      public constant returns (uint) { return lastSoldFor[rId]; }\r\n    function getTransferrable()                       public constant only(signatory) returns (uint) { return transferrable; }\r\n    function eosBalance()                             public constant only(signatory) returns (uint) { return ERC20(EOS).balanceOf(owner); }\r\n\r\n\r\n    // WRITE\r\n    // ---------------------------------\r\n    // ---------------------------------\r\n    // ---------------------------------\r\n\r\n\r\n    // SIGNATORY/OWNER\r\n    // ---------------------------------\r\n    function() public payable {}\r\n    function setSignatory(address _signatory)         public only(0x0) { signatory = _signatory; }\r\n    function setChainLaunched(bool _launched)         public only(signatory) { chainLaunched = _launched; }\r\n    function setEOSAddress(address _address)          public only(signatory) { EOS = _address; }\r\n    function setReservationPrice(uint _price)         public only(signatory) { reservationPrice = _price; }\r\n    function setBidTimeout(uint timeout)              public only(signatory) { bidTimeout = timeout; }\r\n\r\n    function transferEthOut(address to, uint amount)     public only(signatory) {\r\n      if(amount < transferrable){\r\n        transferrable -= amount;\r\n        if(!to.send(amount)) transferrable += amount;\r\n      }\r\n    }\r\n\r\n    function transferEosOut(address to, uint amount)     public only(signatory) {\r\n      require(eosBalance() >= amount);\r\n      require(giveEOS(to, amount));\r\n    }\r\n\r\n    function forceReservedNames(bytes24[] _names)   public only(signatory) {\r\n      for (uint i = 0; i < _names.length; i++)\r\n          names[_names[i]] = 1;\r\n    }\r\n\r\n\r\n\r\n    // PUBLIC\r\n    // ---------------------------------\r\n    function reserve(bytes24 name, bytes pkey) public unlaunched {\r\n        require(validReservation(name,pkey));\r\n        require(!exists(name));\r\n        require(takeEOS(reservationPrice));\r\n        atomicResId++;\r\n\r\n        names[name] = atomicResId;\r\n        reservers[atomicResId] = msg.sender;\r\n        reservations[atomicResId] = Reservation(atomicResId, 0, name, pkey, reservationPrice, false);\r\n\r\n        EmitReservation(atomicResId, name, pkey, msg.sender);\r\n    }\r\n\r\n    function bid(uint rId, bytes pkey) public payable unlaunched {\r\n        assert(reservers[rId] != msg.sender);\r\n        assert(bidders[rId] != msg.sender);\r\n        require(msg.value >= 10000000000000000);\r\n        require(reservations[rId].id > 0);\r\n        require(validPkey(pkey));\r\n        require(!equalBytes(reservations[rId].publicKey, pkey));\r\n\r\n        if(lastSoldFor[rId] > 0) require(lastSoldFor[rId] < msg.value);\r\n        if(bids[rId].price > 0) {\r\n          require(bids[rId].price < msg.value);\r\n          require(!bids[rId].transferring);\r\n          bids[rId].transferring = true;\r\n          bidders[rId].transfer(bids[rId].price);\r\n        }\r\n\r\n        bidders[rId] = msg.sender;\r\n        bids[rId] = Bid(pkey, msg.value, now, false);\r\n        EmitBid(rId, pkey, msg.value, msg.sender);\r\n    }\r\n\r\n    function unBid(uint rId) public {\r\n        assert(bidders[rId] == msg.sender);\r\n        require(bids[rId].timestamp >= now + bidTimeout);\r\n\r\n        uint price = bids[rId].price;\r\n        address bidder = bidders[rId];\r\n\r\n        delete bidders[rId];\r\n        delete bids[rId];\r\n\r\n        bidder.transfer(price);\r\n\r\n        EmitUnBid(rId, price, msg.sender);\r\n    }\r\n\r\n    function sell(uint rId) public unlaunched {\r\n        assert(reservations[rId].id > 0);\r\n        assert(reservers[rId] == msg.sender);\r\n        assert(!reservations[rId].transferring);\r\n        require(bids[rId].price > 0);\r\n\r\n        reservations[rId].transferring = true;\r\n        if(!reservers[rId].send(bids[rId].price  - (bids[rId].price/10))){\r\n            reservations[rId].transferring = false;\r\n            return;\r\n        }\r\n\r\n        transferrable += bids[rId].price/10;\r\n\r\n        // Changing ownership\r\n        reservations[rId].publicKey = bids[rId].publicKey;\r\n        reservers[rId] = bidders[rId];\r\n        lastSoldFor[rId] = bids[rId].price;\r\n\r\n        delete bids[rId];\r\n        delete bidders[rId];\r\n\r\n        reservations[rId].transferring = false;\r\n        EmitSell(rId, lastSoldFor[rId], reservations[rId].publicKey, reservers[rId]);\r\n    }\r\n\r\n\r\n\r\n\r\n    // EOS\r\n    // ---------------------------------\r\n    function takeEOS(uint price) internal returns(bool) {\r\n        require(price <= ERC20(EOS).allowance(msg.sender, this));\r\n        if(!ERC20(EOS).transferFrom(msg.sender, this, price)){\r\n            revert();\r\n            return false;\r\n        }\r\n        return true;\r\n    }\r\n\r\n    function giveEOS(address to, uint price) internal returns(bool) {\r\n        if(!ERC20(EOS).transfer(to, price)){\r\n            revert();\r\n            return false;\r\n        }\r\n        return true;\r\n    }\r\n\r\n\r\n\r\n    // HELPERS\r\n    // ---------------------------------\r\n    function validReservation(bytes24 name, bytes pkey) internal pure returns (bool){\r\n        require(nameLength(name) > 2 && nameLength(name) <= 20);\r\n        require(isLower(name));\r\n        validPkey(pkey);\r\n        return true;\r\n    }\r\n\r\n    function validPkey(bytes pkey) internal pure returns (bool){\r\n        assert(pkey.length > 30);\r\n        return true;\r\n    }\r\n\r\n    function equalBytes(bytes a, bytes b) internal pure returns (bool) {\r\n        return keccak256(a) == keccak256(b);\r\n    }\r\n\r\n    function isLower(bytes24 name) internal pure returns(bool){\r\n      for (uint i = 0; i < name.length; i++) {\r\n        if(name[i] == 32) return false;\r\n  \t\t\tif (name[i] >= 65 && name[i] <= 90) return false;\r\n  \t\t}\r\n      return true;\r\n    }\r\n\r\n    function nameLength(bytes24 self) internal pure returns (uint length) {\r\n      uint ret;\r\n        if (self == 0) return 0;\r\n        if (self & 0xffffffffffffffffffffffffffffffff == 0) {\r\n            ret += 16;\r\n            self = bytes24(uint(self) / 0x100000000000000000000000000000000);\r\n        }\r\n        if (self & 0xffffffffffffffff == 0) {\r\n            ret += 8;\r\n            self = bytes24(uint(self) / 0x10000000000000000);\r\n        }\r\n        if (self & 0xffffffff == 0) {\r\n            ret += 4;\r\n            self = bytes24(uint(self) / 0x100000000);\r\n        }\r\n        if (self & 0xffff == 0) {\r\n            ret += 2;\r\n            self = bytes24(uint(self) / 0x10000);\r\n        }\r\n        if (self & 0xff == 0) ret += 1;\r\n        return 24 - ret;\r\n    }\r\n\r\n}\r\n\r\ncontract ERC20 {\r\n    function totalSupply() public constant returns (uint supply);\r\n    function balanceOf( address who ) public constant returns (uint value);\r\n    function allowance( address owner, address spender ) public constant returns (uint _allowance);\r\n\r\n    function transfer( address to, uint value) public returns (bool ok);\r\n    function transferFrom( address from, address to, uint value) public returns (bool ok);\r\n    function approve( address spender, uint value ) public returns (bool ok);\r\n\r\n    event Transfer( address indexed from, address indexed to, uint value);\r\n    event Approval( address indexed owner, address indexed spender, uint value);\r\n}\r\n",
  "sourcePath": "D:\\work\\contracts\\scatter_reservations\\contracts\\ScatterReservation.sol",
  "compiler": {
    "name": "solc",
    "version": "0.4.19+commit.c4cbbb05.Emscripten.clang"
  },
  "schemaVersion": "2.0.0",
  "updatedAt": "2018-03-19T04:06:25.748Z"
}