{
  "contractName": "ScatterReservation",
  "abi": [
    {
      "constant": true,
      "inputs": [
        {
          "name": "",
          "type": "uint256"
        }
      ],
      "name": "reservations",
      "outputs": [
        {
          "name": "id",
          "type": "uint256"
        },
        {
          "name": "entityType",
          "type": "bytes1"
        },
        {
          "name": "name",
          "type": "bytes24"
        },
        {
          "name": "publicKey",
          "type": "bytes"
        }
      ],
      "payable": false,
      "stateMutability": "view",
      "type": "function"
    },
    {
      "constant": true,
      "inputs": [
        {
          "name": "",
          "type": "uint256"
        }
      ],
      "name": "pendingReservations",
      "outputs": [
        {
          "name": "id",
          "type": "uint256"
        },
        {
          "name": "entityType",
          "type": "bytes1"
        },
        {
          "name": "name",
          "type": "bytes24"
        },
        {
          "name": "publicKey",
          "type": "bytes"
        }
      ],
      "payable": false,
      "stateMutability": "view",
      "type": "function"
    },
    {
      "constant": true,
      "inputs": [
        {
          "name": "",
          "type": "bytes24"
        }
      ],
      "name": "pendingNames",
      "outputs": [
        {
          "name": "",
          "type": "uint256"
        }
      ],
      "payable": false,
      "stateMutability": "view",
      "type": "function"
    },
    {
      "constant": true,
      "inputs": [
        {
          "name": "",
          "type": "uint256"
        }
      ],
      "name": "bids",
      "outputs": [
        {
          "name": "reservationId",
          "type": "uint256"
        },
        {
          "name": "publicKey",
          "type": "bytes"
        },
        {
          "name": "price",
          "type": "uint256"
        },
        {
          "name": "timestamp",
          "type": "uint256"
        }
      ],
      "payable": false,
      "stateMutability": "view",
      "type": "function"
    },
    {
      "constant": true,
      "inputs": [],
      "name": "owner",
      "outputs": [
        {
          "name": "",
          "type": "address"
        }
      ],
      "payable": false,
      "stateMutability": "view",
      "type": "function"
    },
    {
      "constant": true,
      "inputs": [],
      "name": "signatory",
      "outputs": [
        {
          "name": "",
          "type": "address"
        }
      ],
      "payable": false,
      "stateMutability": "view",
      "type": "function"
    },
    {
      "constant": true,
      "inputs": [],
      "name": "reservationPrice",
      "outputs": [
        {
          "name": "",
          "type": "uint256"
        }
      ],
      "payable": false,
      "stateMutability": "view",
      "type": "function"
    },
    {
      "constant": true,
      "inputs": [
        {
          "name": "",
          "type": "uint256"
        }
      ],
      "name": "bidders",
      "outputs": [
        {
          "name": "",
          "type": "address"
        }
      ],
      "payable": false,
      "stateMutability": "view",
      "type": "function"
    },
    {
      "constant": true,
      "inputs": [
        {
          "name": "",
          "type": "uint256"
        }
      ],
      "name": "lastSoldFor",
      "outputs": [
        {
          "name": "",
          "type": "uint256"
        }
      ],
      "payable": false,
      "stateMutability": "view",
      "type": "function"
    },
    {
      "constant": true,
      "inputs": [
        {
          "name": "",
          "type": "uint256"
        }
      ],
      "name": "reservers",
      "outputs": [
        {
          "name": "",
          "type": "address"
        }
      ],
      "payable": false,
      "stateMutability": "view",
      "type": "function"
    },
    {
      "constant": true,
      "inputs": [
        {
          "name": "",
          "type": "bytes24"
        }
      ],
      "name": "names",
      "outputs": [
        {
          "name": "",
          "type": "uint256"
        }
      ],
      "payable": false,
      "stateMutability": "view",
      "type": "function"
    },
    {
      "constant": true,
      "inputs": [],
      "name": "atomicResId",
      "outputs": [
        {
          "name": "",
          "type": "uint256"
        }
      ],
      "payable": false,
      "stateMutability": "view",
      "type": "function"
    },
    {
      "inputs": [
        {
          "name": "_eos",
          "type": "address"
        }
      ],
      "payable": false,
      "stateMutability": "nonpayable",
      "type": "constructor"
    },
    {
      "anonymous": false,
      "inputs": [
        {
          "indexed": false,
          "name": "reservationId",
          "type": "uint256"
        },
        {
          "indexed": false,
          "name": "name",
          "type": "bytes24"
        }
      ],
      "name": "EmitReservation",
      "type": "event"
    },
    {
      "anonymous": false,
      "inputs": [
        {
          "indexed": false,
          "name": "reservationId",
          "type": "uint256"
        }
      ],
      "name": "EmitPendingReservation",
      "type": "event"
    },
    {
      "anonymous": false,
      "inputs": [
        {
          "indexed": false,
          "name": "reservationId",
          "type": "uint256"
        }
      ],
      "name": "EmitDappDecision",
      "type": "event"
    },
    {
      "anonymous": false,
      "inputs": [
        {
          "indexed": false,
          "name": "reservationId",
          "type": "uint256"
        }
      ],
      "name": "EmitBid",
      "type": "event"
    },
    {
      "anonymous": false,
      "inputs": [
        {
          "indexed": false,
          "name": "reservationId",
          "type": "uint256"
        }
      ],
      "name": "EmitUnBid",
      "type": "event"
    },
    {
      "anonymous": false,
      "inputs": [
        {
          "indexed": false,
          "name": "reservationId",
          "type": "uint256"
        }
      ],
      "name": "EmitSell",
      "type": "event"
    },
    {
      "anonymous": false,
      "inputs": [
        {
          "indexed": false,
          "name": "msg",
          "type": "string"
        }
      ],
      "name": "EmitError",
      "type": "event"
    },
    {
      "constant": true,
      "inputs": [],
      "name": "currentId",
      "outputs": [
        {
          "name": "",
          "type": "uint256"
        }
      ],
      "payable": false,
      "stateMutability": "view",
      "type": "function"
    },
    {
      "constant": true,
      "inputs": [
        {
          "name": "strname",
          "type": "string"
        }
      ],
      "name": "exists",
      "outputs": [
        {
          "name": "",
          "type": "bool"
        }
      ],
      "payable": false,
      "stateMutability": "view",
      "type": "function"
    },
    {
      "constant": true,
      "inputs": [
        {
          "name": "rId",
          "type": "uint256"
        }
      ],
      "name": "reservationOwner",
      "outputs": [
        {
          "name": "",
          "type": "address"
        }
      ],
      "payable": false,
      "stateMutability": "view",
      "type": "function"
    },
    {
      "constant": true,
      "inputs": [
        {
          "name": "rId",
          "type": "uint256"
        }
      ],
      "name": "bidOwner",
      "outputs": [
        {
          "name": "",
          "type": "address"
        }
      ],
      "payable": false,
      "stateMutability": "view",
      "type": "function"
    },
    {
      "constant": false,
      "inputs": [
        {
          "name": "_signatory",
          "type": "address"
        }
      ],
      "name": "setSignatory",
      "outputs": [],
      "payable": false,
      "stateMutability": "nonpayable",
      "type": "function"
    },
    {
      "constant": false,
      "inputs": [
        {
          "name": "_address",
          "type": "address"
        }
      ],
      "name": "setEOSAddress",
      "outputs": [],
      "payable": false,
      "stateMutability": "nonpayable",
      "type": "function"
    },
    {
      "constant": false,
      "inputs": [
        {
          "name": "_price",
          "type": "uint256"
        }
      ],
      "name": "setReservationPrice",
      "outputs": [],
      "payable": false,
      "stateMutability": "nonpayable",
      "type": "function"
    },
    {
      "constant": false,
      "inputs": [
        {
          "name": "strname",
          "type": "string"
        },
        {
          "name": "pkey",
          "type": "bytes"
        }
      ],
      "name": "reserveUser",
      "outputs": [
        {
          "name": "",
          "type": "uint256"
        }
      ],
      "payable": false,
      "stateMutability": "nonpayable",
      "type": "function"
    },
    {
      "constant": false,
      "inputs": [
        {
          "name": "strname",
          "type": "string"
        },
        {
          "name": "pkey",
          "type": "bytes"
        }
      ],
      "name": "reserveDapp",
      "outputs": [
        {
          "name": "",
          "type": "uint256"
        }
      ],
      "payable": false,
      "stateMutability": "nonpayable",
      "type": "function"
    },
    {
      "constant": false,
      "inputs": [
        {
          "name": "id",
          "type": "uint256"
        },
        {
          "name": "accepted",
          "type": "bool"
        }
      ],
      "name": "dappDecision",
      "outputs": [],
      "payable": false,
      "stateMutability": "nonpayable",
      "type": "function"
    },
    {
      "constant": false,
      "inputs": [
        {
          "name": "rId",
          "type": "uint256"
        },
        {
          "name": "price",
          "type": "uint256"
        },
        {
          "name": "pkey",
          "type": "bytes"
        }
      ],
      "name": "bid",
      "outputs": [
        {
          "name": "",
          "type": "uint256"
        }
      ],
      "payable": false,
      "stateMutability": "nonpayable",
      "type": "function"
    },
    {
      "constant": false,
      "inputs": [
        {
          "name": "rId",
          "type": "uint256"
        }
      ],
      "name": "unBid",
      "outputs": [],
      "payable": false,
      "stateMutability": "nonpayable",
      "type": "function"
    },
    {
      "constant": false,
      "inputs": [
        {
          "name": "rId",
          "type": "uint256"
        }
      ],
      "name": "sell",
      "outputs": [],
      "payable": false,
      "stateMutability": "nonpayable",
      "type": "function"
    }
  ],
  "bytecode": "0x6060604052341561000f57600080fd5b60405160208061303383398101604052808051906020019091905050806000806101000a81548173ffffffffffffffffffffffffffffffffffffffff021916908373ffffffffffffffffffffffffffffffffffffffff16021790555033600160006101000a81548173ffffffffffffffffffffffffffffffffffffffff021916908373ffffffffffffffffffffffffffffffffffffffff1602179055506000600c81905550670de0b6b3a764000060038190555050612f60806100d36000396000f300606060405260043610610149576000357c0100000000000000000000000000000000000000000000000000000000900463ffffffff16806302488cc51461014e578063067cf832146101b15780631d2d6e70146102d9578063261a323e146103125780632d3be00c1461038757806341b30500146104af5780634423c5f1146104f157806354cb64db146105bf5780636e3cf8df14610642578063830b526a146106f65780638da5cb5b14610724578063913123ca14610779578063a3615bc0146107ce578063af426f1114610831578063c93280c71461085a578063cff29dfd1461087d578063d028e96c146108e0578063e00dd16114610917578063e4849b3214610940578063e58dc83414610963578063e72630df14610986578063e786746f14610a3a578063e880511314610a73578063e880ebb714610ad6578063fba2bbd414610b18575b600080fd5b341561015957600080fd5b61016f6004808035906020019091905050610b41565b604051808273ffffffffffffffffffffffffffffffffffffffff1673ffffffffffffffffffffffffffffffffffffffff16815260200191505060405180910390f35b34156101bc57600080fd5b6101d26004808035906020019091905050610b7e565b60405180858152602001847effffffffffffffffffffffffffffffffffffffffffffffffffffffffffffff19167effffffffffffffffffffffffffffffffffffffffffffffffffffffffffffff191681526020018367ffffffffffffffff191667ffffffffffffffff19168152602001806020018281038252838181546001816001161561010002031660029004815260200191508054600181600116156101000203166002900480156102c75780601f1061029c576101008083540402835291602001916102c7565b820191906000526020600020905b8154815290600101906020018083116102aa57829003601f168201915b50509550505050505060405180910390f35b34156102e457600080fd5b610310600480803573ffffffffffffffffffffffffffffffffffffffff16906020019091905050610bee565b005b341561031d57600080fd5b61036d600480803590602001908201803590602001908080601f01602080910402602001604051908101604052809392919081815260200183838082843782019150505050505091905050610c90565b604051808215151515815260200191505060405180910390f35b341561039257600080fd5b6103a86004808035906020019091905050610d0f565b60405180858152602001847effffffffffffffffffffffffffffffffffffffffffffffffffffffffffffff19167effffffffffffffffffffffffffffffffffffffffffffffffffffffffffffff191681526020018367ffffffffffffffff191667ffffffffffffffff191681526020018060200182810382528381815460018160011615610100020316600290048152602001915080546001816001161561010002031660029004801561049d5780601f106104725761010080835404028352916020019161049d565b820191906000526020600020905b81548152906001019060200180831161048057829003601f168201915b50509550505050505060405180910390f35b34156104ba57600080fd5b6104db600480803567ffffffffffffffff1916906020019091905050610d7f565b6040518082815260200191505060405180910390f35b34156104fc57600080fd5b6105126004808035906020019091905050610d97565b60405180858152602001806020018481526020018381526020018281038252858181546001816001161561010002031660029004815260200191508054600181600116156101000203166002900480156105ad5780601f10610582576101008083540402835291602001916105ad565b820191906000526020600020905b81548152906001019060200180831161059057829003601f168201915b50509550505050505060405180910390f35b34156105ca57600080fd5b61062c600480803590602001909190803590602001909190803590602001908201803590602001908080601f01602080910402602001604051908101604052809392919081815260200183838082843782019150505050505091905050610dc6565b6040518082815260200191505060405180910390f35b341561064d57600080fd5b6106e0600480803590602001908201803590602001908080601f0160208091040260200160405190810160405280939291908181526020018383808284378201915050505050509190803590602001908201803590602001908080601f01602080910402602001604051908101604052809392919081815260200183838082843782019150505050505091905050611126565b6040518082815260200191505060405180910390f35b341561070157600080fd5b610722600480803590602001909190803515159060200190919050506113af565b005b341561072f57600080fd5b610737611797565b604051808273ffffffffffffffffffffffffffffffffffffffff1673ffffffffffffffffffffffffffffffffffffffff16815260200191505060405180910390f35b341561078457600080fd5b61078c6117bd565b604051808273ffffffffffffffffffffffffffffffffffffffff1673ffffffffffffffffffffffffffffffffffffffff16815260200191505060405180910390f35b34156107d957600080fd5b6107ef60048080359060200190919050506117e3565b604051808273ffffffffffffffffffffffffffffffffffffffff1673ffffffffffffffffffffffffffffffffffffffff16815260200191505060405180910390f35b341561083c57600080fd5b610844611820565b6040518082815260200191505060405180910390f35b341561086557600080fd5b61087b6004808035906020019091905050611826565b005b341561088857600080fd5b61089e600480803590602001909190505061188e565b604051808273ffffffffffffffffffffffffffffffffffffffff1673ffffffffffffffffffffffffffffffffffffffff16815260200191505060405180910390f35b34156108eb57600080fd5b61090160048080359060200190919050506118c1565b6040518082815260200191505060405180910390f35b341561092257600080fd5b61092a6118d9565b6040518082815260200191505060405180910390f35b341561094b57600080fd5b61096160048080359060200190919050506118e3565b005b341561096e57600080fd5b6109846004808035906020019091905050611c24565b005b341561099157600080fd5b610a24600480803590602001908201803590602001908080601f0160208091040260200160405190810160405280939291908181526020018383808284378201915050505050509190803590602001908201803590602001908080601f01602080910402602001604051908101604052809392919081815260200183838082843782019150505050505091905050611ddf565b6040518082815260200191505060405180910390f35b3415610a4557600080fd5b610a71600480803573ffffffffffffffffffffffffffffffffffffffff169060200190919050506120a5565b005b3415610a7e57600080fd5b610a946004808035906020019091905050612146565b604051808273ffffffffffffffffffffffffffffffffffffffff1673ffffffffffffffffffffffffffffffffffffffff16815260200191505060405180910390f35b3415610ae157600080fd5b610b02600480803567ffffffffffffffff1916906020019091905050612179565b6040518082815260200191505060405180910390f35b3415610b2357600080fd5b610b2b612191565b6040518082815260200191505060405180910390f35b60006004600083815260200190815260200160002060009054906101000a900473ffffffffffffffffffffffffffffffffffffffff169050919050565b60056020528060005260406000206000915090508060000154908060010160009054906101000a90047f010000000000000000000000000000000000000000000000000000000000000002908060010160019054906101000a900468010000000000000000029080600201905084565b600160009054906101000a900473ffffffffffffffffffffffffffffffffffffffff168073ffffffffffffffffffffffffffffffffffffffff163373ffffffffffffffffffffffffffffffffffffffff16141515610c4b57600080fd5b81600260006101000a81548173ffffffffffffffffffffffffffffffffffffffff021916908373ffffffffffffffffffffffffffffffffffffffff1602179055505050565b600080610ca4610c9f84612197565b6124cb565b90506000600a60008367ffffffffffffffff191667ffffffffffffffff19168152602001908152602001600020541180610d0757506000600b60008367ffffffffffffffff191667ffffffffffffffff1916815260200190815260200160002054115b915050919050565b60066020528060005260406000206000915090508060000154908060010160009054906101000a90047f010000000000000000000000000000000000000000000000000000000000000002908060010160019054906101000a900468010000000000000000029080600201905084565b600b6020528060005260406000206000915090505481565b600860205280600052604060002060009150905080600001549080600101908060020154908060030154905084565b60003373ffffffffffffffffffffffffffffffffffffffff166004600086815260200190815260200160002060009054906101000a900473ffffffffffffffffffffffffffffffffffffffff1673ffffffffffffffffffffffffffffffffffffffff1614151515610e3357fe5b60006005600086815260200190815260200160002060000154111515610e5857600080fd5b610e6182612504565b1515610e6c57600080fd5b610f24600560008681526020019081526020016000206002018054600181600116156101000203166002900480601f016020809104026020016040519081016040528092919081815260200182805460018160011615610100020316600290048015610f195780601f10610eee57610100808354040283529160200191610f19565b820191906000526020600020905b815481529060010190602001808311610efc57829003601f168201915b50505050508361251c565b151515610f3057600080fd5b826009600086815260200190815260200160002054101515610f5157600080fd5b826008600086815260200190815260200160002060020154101515610f7557600080fd5b610f7e836125f5565b1515610f8957600080fd5b60006008600086815260200190815260200160002060000154111561102157826008600086815260200190815260200160002060020154101515610fcc57600080fd5b61101f6007600086815260200190815260200160002060009054906101000a900473ffffffffffffffffffffffffffffffffffffffff166008600087815260200190815260200160002060020154612847565b505b336007600086815260200190815260200160002060006101000a81548173ffffffffffffffffffffffffffffffffffffffff021916908373ffffffffffffffffffffffffffffffffffffffff16021790555060806040519081016040528085815260200183815260200184815260200142815250600860008681526020019081526020016000206000820151816000015560208201518160010190805190602001906110ce929190612d11565b5060408201518160020155606082015181600301559050507e81cf905373724efc3cd404c51777656caa4250a848d0caa8b9eda371edb55a846040518082815260200191505060405180910390a18390509392505050565b6000806111338484612945565b151561113e57600080fd5b61114f61114a85612197565b6124cb565b90506000600b60008367ffffffffffffffff191667ffffffffffffffff191681526020019081526020016000205414151561118957600080fd5b6111946003546125f5565b151561119f57600080fd5b600c60008154809291906001019190505550600c54600b60008367ffffffffffffffff191667ffffffffffffffff19168152602001908152602001600020819055503360046000600c54815260200190815260200160002060006101000a81548173ffffffffffffffffffffffffffffffffffffffff021916908373ffffffffffffffffffffffffffffffffffffffff160217905550608060405190810160405280600c54815260200160017f0100000000000000000000000000000000000000000000000000000000000000027effffffffffffffffffffffffffffffffffffffffffffffffffffffffffffff191681526020018267ffffffffffffffff191681526020018481525060066000600c5481526020019081526020016000206000820151816000015560208201518160010160006101000a81548160ff02191690837f01000000000000000000000000000000000000000000000000000000000000009004021790555060408201518160010160016101000a81548177ffffffffffffffffffffffffffffffffffffffffffffffff021916908368010000000000000000900402179055506060820151816002019080519060200190611366929190612d11565b509050507f523598c55994a97db50ec2d61c717e0086bd82f5a511e132dc1f90c61624bf8b600c546040518082815260200191505060405180910390a1600c5491505092915050565b6000600260009054906101000a900473ffffffffffffffffffffffffffffffffffffffff168073ffffffffffffffffffffffffffffffffffffffff163373ffffffffffffffffffffffffffffffffffffffff1614151561140e57600080fd5b60066000858152602001908152602001600020915083826000015414151561143557600080fd5b82156116a7576000600a60008460010160019054906101000a9004680100000000000000000267ffffffffffffffff191667ffffffffffffffff19168152602001908152602001600020541180156114a0575060006009600086815260200190815260200160002054115b156115395761153760046000600a60008660010160019054906101000a9004680100000000000000000267ffffffffffffffff191667ffffffffffffffff1916815260200190815260200160002054815260200190815260200160002060009054906101000a900473ffffffffffffffffffffffffffffffffffffffff166009600087815260200190815260200160002054612847565b505b60035460096000868152602001908152602001600020819055508160056000868152602001908152602001600020600082015481600001556001820160009054906101000a90047f0100000000000000000000000000000000000000000000000000000000000000028160010160006101000a81548160ff02191690837f0100000000000000000000000000000000000000000000000000000000000000900402179055506001820160019054906101000a900468010000000000000000028160010160016101000a81548177ffffffffffffffffffffffffffffffffffffffffffffffff021916908368010000000000000000900402179055506002820181600201908054600181600116156101000203166002900461165b929190612d91565b5090505083600a60008460010160019054906101000a9004680100000000000000000267ffffffffffffffff191667ffffffffffffffff19168152602001908152602001600020819055505b600b60008360010160019054906101000a9004680100000000000000000267ffffffffffffffff191667ffffffffffffffff1916815260200190815260200160002060009055600660008581526020019081526020016000206000808201600090556001820160006101000a81549060ff02191690556001820160016101000a81549077ffffffffffffffffffffffffffffffffffffffffffffffff02191690556002820160006117589190612e18565b50507fbb40664dce395d28383325ddaf9f6a1520f98541ee2f4cd2395ff844fb2066a0846040518082815260200191505060405180910390a150505050565b600160009054906101000a900473ffffffffffffffffffffffffffffffffffffffff1681565b600260009054906101000a900473ffffffffffffffffffffffffffffffffffffffff1681565b60006007600083815260200190815260200160002060009054906101000a900473ffffffffffffffffffffffffffffffffffffffff169050919050565b60035481565b600160009054906101000a900473ffffffffffffffffffffffffffffffffffffffff168073ffffffffffffffffffffffffffffffffffffffff163373ffffffffffffffffffffffffffffffffffffffff1614151561188357600080fd5b816003819055505050565b60076020528060005260406000206000915054906101000a900473ffffffffffffffffffffffffffffffffffffffff1681565b60096020528060005260406000206000915090505481565b6000600c54905090565b3373ffffffffffffffffffffffffffffffffffffffff166004600083815260200190815260200160002060009054906101000a900473ffffffffffffffffffffffffffffffffffffffff1673ffffffffffffffffffffffffffffffffffffffff1614151561194d57fe5b6000600560008381526020019081526020016000206000015411151561197257600080fd5b60006007600083815260200190815260200160002060009054906101000a900473ffffffffffffffffffffffffffffffffffffffff1673ffffffffffffffffffffffffffffffffffffffff161115156119ca57600080fd5b600060086000838152602001908152602001600020600201541115156119ef57600080fd5b611a0e60086000838152602001908152602001600020600201546125f5565b1515611a1957600080fd5b611a6c6007600083815260200190815260200160002060009054906101000a900473ffffffffffffffffffffffffffffffffffffffff166008600084815260200190815260200160002060020154612847565b1515611a7757600080fd5b60086000828152602001908152602001600020600101600560008381526020019081526020016000206002019080546001816001161561010002031660029004611ac2929190612e60565b506007600082815260200190815260200160002060009054906101000a900473ffffffffffffffffffffffffffffffffffffffff166004600083815260200190815260200160002060006101000a81548173ffffffffffffffffffffffffffffffffffffffff021916908373ffffffffffffffffffffffffffffffffffffffff1602179055506008600082815260200190815260200160002060020154600960008381526020019081526020016000208190555060086000828152602001908152602001600020600080820160009055600182016000611ba29190612e18565b6002820160009055600382016000905550506007600082815260200190815260200160002060006101000a81549073ffffffffffffffffffffffffffffffffffffffff02191690557f3dabe43fbc313a139251613e0ab417151e4850fcdcb0ecb5acd4a1c37bcc9c1e816040518082815260200191505060405180910390a150565b3373ffffffffffffffffffffffffffffffffffffffff166007600083815260200190815260200160002060009054906101000a900473ffffffffffffffffffffffffffffffffffffffff1673ffffffffffffffffffffffffffffffffffffffff16141515611c8e57fe5b60006008600083815260200190815260200160002060000154111515611cb357600080fd5b6202a3004201600860008381526020019081526020016000206003015410151515611cdd57600080fd5b611d306007600083815260200190815260200160002060009054906101000a900473ffffffffffffffffffffffffffffffffffffffff166008600084815260200190815260200160002060020154612847565b5060086000828152602001908152602001600020600080820160009055600182016000611d5d9190612e18565b6002820160009055600382016000905550506007600082815260200190815260200160002060006101000a81549073ffffffffffffffffffffffffffffffffffffffff02191690557f756f5c483934deaec45fc0865dac41640c764abfa14ec7324a0f979df8df8262816040518082815260200191505060405180910390a150565b600080611deb84610c90565b151515611df757600080fd5b611e018484612945565b1515611e0c57600080fd5b611e1d611e1885612197565b6124cb565b9050600068010000000000000000028167ffffffffffffffff191614151515611e4557600080fd5b611e506003546125f5565b1515611e5b57600080fd5b600c60008154809291906001019190505550600c54600a60008367ffffffffffffffff191667ffffffffffffffff19168152602001908152602001600020819055503360046000600c54815260200190815260200160002060006101000a81548173ffffffffffffffffffffffffffffffffffffffff021916908373ffffffffffffffffffffffffffffffffffffffff160217905550608060405190810160405280600c54815260200160007f0100000000000000000000000000000000000000000000000000000000000000027effffffffffffffffffffffffffffffffffffffffffffffffffffffffffffff191681526020018267ffffffffffffffff191681526020018481525060056000600c5481526020019081526020016000206000820151816000015560208201518160010160006101000a81548160ff02191690837f01000000000000000000000000000000000000000000000000000000000000009004021790555060408201518160010160016101000a81548177ffffffffffffffffffffffffffffffffffffffffffffffff021916908368010000000000000000900402179055506060820151816002019080519060200190612022929190612d11565b5090505060035460096000600c548152602001908152602001600020819055507fb342a9aa8b712c629ce515f06f46a0cdbe68fc4d8ba11af0d2ceaacdaeaa6118600c5482604051808381526020018267ffffffffffffffff191667ffffffffffffffff191681526020019250505060405180910390a1600c5491505092915050565b600160009054906101000a900473ffffffffffffffffffffffffffffffffffffffff168073ffffffffffffffffffffffffffffffffffffffff163373ffffffffffffffffffffffffffffffffffffffff1614151561210257600080fd5b816000806101000a81548173ffffffffffffffffffffffffffffffffffffffff021916908373ffffffffffffffffffffffffffffffffffffffff1602179055505050565b60046020528060005260406000206000915054906101000a900473ffffffffffffffffffffffffffffffffffffffff1681565b600a6020528060005260406000206000915090505481565b600c5481565b61219f612ee7565b6121a7612efb565b6121af612efb565b600084925082516040518059106121c35750595b9080825280601f01601f19166020018201604052509150600090505b82518110156124c05760417f010000000000000000000000000000000000000000000000000000000000000002838281518110151561221a57fe5b9060200101517f010000000000000000000000000000000000000000000000000000000000000090047f0100000000000000000000000000000000000000000000000000000000000000027effffffffffffffffffffffffffffffffffffffffffffffffffffffffffffff1916101580156123325750605a7f01000000000000000000000000000000000000000000000000000000000000000283828151811015156122c257fe5b9060200101517f010000000000000000000000000000000000000000000000000000000000000090047f0100000000000000000000000000000000000000000000000000000000000000027effffffffffffffffffffffffffffffffffffffffffffffffffffffffffffff191611155b1561241b576020838281518110151561234757fe5b9060200101517f010000000000000000000000000000000000000000000000000000000000000090047f0100000000000000000000000000000000000000000000000000000000000000027f01000000000000000000000000000000000000000000000000000000000000009004017f01000000000000000000000000000000000000000000000000000000000000000282828151811015156123e657fe5b9060200101907effffffffffffffffffffffffffffffffffffffffffffffffffffffffffffff1916908160001a9053506124b3565b828181518110151561242957fe5b9060200101517f010000000000000000000000000000000000000000000000000000000000000090047f010000000000000000000000000000000000000000000000000000000000000002828281518110151561248257fe5b9060200101907effffffffffffffffffffffffffffffffffffffffffffffffffffffffffffff1916908160001a9053505b80806001019150506121df565b819350505050919050565b60006124d5612efb565b8290506000815114156124f6576000680100000000000000000291506124fe565b601883015191505b50919050565b6000601e825111151561251357fe5b60019050919050565b6000816040518082805190602001908083835b602083101515612554578051825260208201915060208101905060208303925061252f565b6001836020036101000a038019825116818451168082178552505050505050905001915050604051809103902060001916836040518082805190602001908083835b6020831015156125bb5780518252602082019150602081019050602083039250612596565b6001836020036101000a03801982511681845116808217855250505050505090500191505060405180910390206000191614905092915050565b60008060009054906101000a900473ffffffffffffffffffffffffffffffffffffffff1673ffffffffffffffffffffffffffffffffffffffff1663dd62ed3e33306000604051602001526040518363ffffffff167c0100000000000000000000000000000000000000000000000000000000028152600401808373ffffffffffffffffffffffffffffffffffffffff1673ffffffffffffffffffffffffffffffffffffffff1681526020018273ffffffffffffffffffffffffffffffffffffffff1673ffffffffffffffffffffffffffffffffffffffff16815260200192505050602060405180830381600087803b15156126ef57600080fd5b6102c65a03f1151561270057600080fd5b50505060405180519050821115151561271857600080fd5b6000809054906101000a900473ffffffffffffffffffffffffffffffffffffffff1673ffffffffffffffffffffffffffffffffffffffff166323b872dd3330856000604051602001526040518463ffffffff167c0100000000000000000000000000000000000000000000000000000000028152600401808473ffffffffffffffffffffffffffffffffffffffff1673ffffffffffffffffffffffffffffffffffffffff1681526020018373ffffffffffffffffffffffffffffffffffffffff1673ffffffffffffffffffffffffffffffffffffffff1681526020018281526020019350505050602060405180830381600087803b151561281857600080fd5b6102c65a03f1151561282957600080fd5b50505060405180519050151561283e57600080fd5b60019050919050565b60008060009054906101000a900473ffffffffffffffffffffffffffffffffffffffff1673ffffffffffffffffffffffffffffffffffffffff1663a9059cbb84846000604051602001526040518363ffffffff167c0100000000000000000000000000000000000000000000000000000000028152600401808373ffffffffffffffffffffffffffffffffffffffff1673ffffffffffffffffffffffffffffffffffffffff16815260200182815260200192505050602060405180830381600087803b151561291557600080fd5b6102c65a03f1151561292657600080fd5b50505060405180519050151561293b57600080fd5b6001905092915050565b600060026129528461296f565b11151561295b57fe5b61296482612504565b506001905092915050565b60008061297a612efb565b600091508390505b8051821015612d0a5760007f010000000000000000000000000000000000000000000000000000000000000002600782848151811015156129bf57fe5b9060200101517f010000000000000000000000000000000000000000000000000000000000000090047f0100000000000000000000000000000000000000000000000000000000000000027effffffffffffffffffffffffffffffffffffffffffffffffffffffffffffff19169060020a90047effffffffffffffffffffffffffffffffffffffffffffffffffffffffffffff19161415612a6557600182019150612cfd565b60067f01000000000000000000000000000000000000000000000000000000000000000260058284815181101515612a9957fe5b9060200101517f010000000000000000000000000000000000000000000000000000000000000090047f0100000000000000000000000000000000000000000000000000000000000000027effffffffffffffffffffffffffffffffffffffffffffffffffffffffffffff19169060020a90047effffffffffffffffffffffffffffffffffffffffffffffffffffffffffffff19161415612b3f57600282019150612cfc565b600e7f01000000000000000000000000000000000000000000000000000000000000000260048284815181101515612b7357fe5b9060200101517f010000000000000000000000000000000000000000000000000000000000000090047f0100000000000000000000000000000000000000000000000000000000000000027effffffffffffffffffffffffffffffffffffffffffffffffffffffffffffff19169060020a90047effffffffffffffffffffffffffffffffffffffffffffffffffffffffffffff19161415612c1957600382019150612cfb565b601e7f01000000000000000000000000000000000000000000000000000000000000000260038284815181101515612c4d57fe5b9060200101517f010000000000000000000000000000000000000000000000000000000000000090047f0100000000000000000000000000000000000000000000000000000000000000027effffffffffffffffffffffffffffffffffffffffffffffffffffffffffffff19169060020a90047effffffffffffffffffffffffffffffffffffffffffffffffffffffffffffff19161415612cf357600482019150612cfa565b6001820191505b5b5b5b8280600101935050612982565b5050919050565b828054600181600116156101000203166002900490600052602060002090601f016020900481019282601f10612d5257805160ff1916838001178555612d80565b82800160010185558215612d80579182015b82811115612d7f578251825591602001919060010190612d64565b5b509050612d8d9190612f0f565b5090565b828054600181600116156101000203166002900490600052602060002090601f016020900481019282601f10612dca5780548555612e07565b82800160010185558215612e0757600052602060002091601f016020900482015b82811115612e06578254825591600101919060010190612deb565b5b509050612e149190612f0f565b5090565b50805460018160011615610100020316600290046000825580601f10612e3e5750612e5d565b601f016020900490600052602060002090810190612e5c9190612f0f565b5b50565b828054600181600116156101000203166002900490600052602060002090601f016020900481019282601f10612e995780548555612ed6565b82800160010185558215612ed657600052602060002091601f016020900482015b82811115612ed5578254825591600101919060010190612eba565b5b509050612ee39190612f0f565b5090565b602060405190810160405280600081525090565b602060405190810160405280600081525090565b612f3191905b80821115612f2d576000816000905550600101612f15565b5090565b905600a165627a7a72305820639b8315a2b75f99da1512b28906b4e82906adfae5e4fb0832cb55c55314ae120029",
  "source": "pragma solidity ^0.4.0;\r\n\r\ncontract ScatterReservation {\r\n\r\n    // STRUCTS\r\n    // ---------------------------------\r\n    struct Reservation {\r\n        uint id;\r\n        bytes1 entityType;\r\n        bytes24 name;\r\n        bytes publicKey;\r\n    }\r\n\r\n    struct Bid {\r\n        uint reservationId;\r\n        bytes publicKey;\r\n        uint price;\r\n        uint timestamp;\r\n    }\r\n\r\n\r\n    // STATE VARIABLES\r\n    // ---------------------------------\r\n    address EOS;\r\n    uint constant bidTimeout = 2 days;\r\n\r\n    address public owner;\r\n    address public signatory;\r\n    uint public reservationPrice;\r\n\r\n    mapping (uint => address) public reservers;\r\n    mapping (uint => Reservation) public reservations;\r\n    mapping (uint => Reservation) public pendingReservations;\r\n\r\n    mapping (uint => address) public bidders;\r\n    mapping (uint => Bid) public bids;\r\n    mapping (uint => uint) public lastSoldFor;\r\n\r\n    mapping (bytes24 => uint) public names;\r\n    mapping (bytes24 => uint) public pendingNames;\r\n\r\n    uint public atomicResId;\r\n\r\n    // CONSTRUCTOR\r\n    // ---------------------------------\r\n    function ScatterReservation(address _eos) public {\r\n        EOS = _eos;\r\n        owner = msg.sender;\r\n        atomicResId = 0;\r\n        reservationPrice = 1000000000000000000;\r\n    }\r\n\r\n\r\n    // MODIFIERS\r\n    modifier only(address _address){\r\n        require(msg.sender == _address);\r\n        _;\r\n    }\r\n\r\n    modifier beforeChainLaunch() {\r\n        //        require(now < now);\r\n        _;\r\n    }\r\n\r\n    // EVENTS\r\n    // ---------------------------------\r\n    event EmitReservation(uint reservationId, bytes24 name);\r\n    event EmitPendingReservation(uint reservationId);\r\n    event EmitDappDecision(uint reservationId);\r\n    event EmitBid(uint reservationId);\r\n    event EmitUnBid(uint reservationId);\r\n    event EmitSell(uint reservationId);\r\n    event EmitError(string msg);\r\n\r\n    // READ\r\n    // ---------------------------------\r\n    function currentId() public constant returns (uint) {\r\n        return atomicResId;\r\n    }\r\n\r\n    function exists(string strname) public constant returns (bool) {\r\n        bytes24 name = stringToBytes24(_toLower(strname));\r\n        return names[name] > 0 || pendingNames[name] > 0;\r\n    }\r\n\r\n    function reservationOwner(uint rId) public constant returns (address) {\r\n        return reservers[rId];\r\n    }\r\n\r\n    function bidOwner(uint rId) public constant returns (address) {\r\n        return bidders[rId];\r\n    }\r\n\r\n\r\n    // WRITE\r\n    // ---------------------------------\r\n    function setSignatory(address _signatory) public only(owner) {\r\n        signatory = _signatory;\r\n    }\r\n\r\n    function setEOSAddress(address _address) public only(owner) {\r\n        EOS = _address;\r\n    }\r\n\r\n    function setReservationPrice(uint _price) public only(owner) {\r\n        reservationPrice = _price;\r\n    }\r\n\r\n    /***\r\n     * Reserves a User Identity\r\n     * */\r\n    function reserveUser(string strname, bytes pkey) public returns (uint) {\r\n        require(!exists(strname));\r\n        require(validReservation(strname,pkey));\r\n        bytes24 name = stringToBytes24(_toLower(strname));\r\n        require(name != 0x0);\r\n        require(takeEOS(reservationPrice));\r\n        atomicResId++;\r\n\r\n        names[name] = atomicResId;\r\n        reservers[atomicResId] = msg.sender;\r\n        reservations[atomicResId] = Reservation(atomicResId, 0, name, pkey);\r\n        lastSoldFor[atomicResId] = reservationPrice;\r\n        EmitReservation(atomicResId, name);\r\n        return atomicResId;\r\n    }\r\n\r\n    /***\r\n     * Reserves a Dapp Identity\r\n     * */\r\n    function reserveDapp(string strname, bytes pkey) public returns (uint) {\r\n        require(validReservation(strname,pkey));\r\n        bytes24 name = stringToBytes24(_toLower(strname));\r\n        require(pendingNames[name] == 0);\r\n        require(takeEOS(reservationPrice));\r\n        atomicResId++;\r\n\r\n        pendingNames[name] = atomicResId;\r\n        reservers[atomicResId] = msg.sender;\r\n        pendingReservations[atomicResId] = Reservation(atomicResId, 1, name, pkey);\r\n        EmitPendingReservation(atomicResId);\r\n        return atomicResId;\r\n    }\r\n\r\n    /***\r\n     * Used for merging pending reservations with reservations\r\n     * */\r\n    function dappDecision(uint id, bool accepted) public only(signatory) {\r\n        Reservation storage r = pendingReservations[id];\r\n        require(r.id == id);\r\n\r\n        if(accepted) {\r\n            // Return funds to possible user owner\r\n            if(names[r.name] > 0 && lastSoldFor[id] > 0)\r\n                giveEOS(reservers[names[r.name]], lastSoldFor[id]);\r\n\r\n            lastSoldFor[id] = reservationPrice;\r\n            reservations[id] = r;\r\n            names[r.name] = id;\r\n\r\n        }\r\n\r\n        delete pendingNames[r.name];\r\n        delete pendingReservations[id];\r\n        EmitDappDecision(id);\r\n    }\r\n\r\n    /***\r\n    * Bids on a reservation.\r\n    */\r\n    function bid(uint rId, uint price, bytes pkey) public returns (uint) {\r\n        assert(reservers[rId] != msg.sender);\r\n        require(reservations[rId].id > 0);\r\n        require(validPkey(pkey));\r\n        require(!equalBytes(reservations[rId].publicKey, pkey));\r\n        require(lastSoldFor[rId] < price);\r\n        require(bids[rId].price < price);\r\n\r\n        // Taking bid price in EOS\r\n        require(takeEOS(price));\r\n\r\n        // Returning previous bid if existing\r\n        if(bids[rId].reservationId > 0){\r\n            require(bids[rId].price < price);\r\n            giveEOS(bidders[rId], bids[rId].price);\r\n        }\r\n\r\n        bidders[rId] = msg.sender;\r\n        bids[rId] = Bid(rId, pkey, price, now);\r\n        EmitBid(rId);\r\n        return rId;\r\n    }\r\n\r\n    /***\r\n    * Unbids on a stale reservation\r\n    */\r\n    function unBid(uint rId) public {\r\n        assert(bidders[rId] == msg.sender);\r\n        require(bids[rId].reservationId > 0);\r\n        require(bids[rId].timestamp >= now + bidTimeout);\r\n\r\n        // Returning funds\r\n        giveEOS(bidders[rId], bids[rId].price);\r\n\r\n        // Removing bid\r\n        delete bids[rId];\r\n        delete bidders[rId];\r\n\r\n        EmitUnBid(rId);\r\n    }\r\n\r\n    function sell(uint rId) public {\r\n        assert(reservers[rId] == msg.sender);\r\n        require(reservations[rId].id > 0);\r\n        require(bidders[rId] > 0);\r\n        require(bids[rId].price > 0);\r\n\r\n        // Moving EOS funds\r\n        require(takeEOS(bids[rId].price));\r\n        require(giveEOS(bidders[rId], bids[rId].price)); //  - bids[rId].price*0.01 (1% tax)\r\n\r\n        // Changing ownership\r\n        reservations[rId].publicKey = bids[rId].publicKey;\r\n        reservers[rId] = bidders[rId];\r\n        lastSoldFor[rId] = bids[rId].price;\r\n\r\n        // Removing bid\r\n        delete bids[rId];\r\n        delete bidders[rId];\r\n\r\n\r\n        EmitSell(rId);\r\n    }\r\n\r\n\r\n\r\n\r\n    // EOS\r\n    // ---------------------------------\r\n    function takeEOS(uint price) internal returns(bool) {\r\n        /* return true; */\r\n        require(price <= ERC20(EOS).allowance(msg.sender, this));\r\n        if(!ERC20(EOS).transferFrom(msg.sender, this, price)){\r\n            revert();\r\n            return false;\r\n        }\r\n        return true;\r\n    }\r\n\r\n    function giveEOS(address to, uint price) internal returns(bool) {\r\n        /* return true; */\r\n        if(!ERC20(EOS).transfer(to, price)){\r\n            revert();\r\n            return false;\r\n        }\r\n        return true;\r\n    }\r\n\r\n\r\n\r\n    // HELPERS\r\n    // ---------------------------------\r\n    function validReservation(string name, bytes pkey) internal pure returns (bool){\r\n        assert(utfStringLength(name) > 2);\r\n        validPkey(pkey);\r\n        return true;\r\n    }\r\n\r\n    function validPkey(bytes pkey) internal pure returns (bool){\r\n        assert(pkey.length > 30);\r\n        return true;\r\n    }\r\n\r\n    function equalBytes(bytes a, bytes b) internal pure returns (bool) {\r\n        return keccak256(a) == keccak256(b);\r\n    }\r\n\r\n    function _toLower(string str) internal pure returns (string) {\r\n  \t\tbytes memory bStr = bytes(str);\r\n  \t\tbytes memory bLower = new bytes(bStr.length);\r\n  \t\tfor (uint i = 0; i < bStr.length; i++) {\r\n  \t\t\tif ((bStr[i] >= 65) && (bStr[i] <= 90)) bLower[i] = bytes1(int(bStr[i]) + 32);\r\n        else bLower[i] = bStr[i];\r\n  \t\t}\r\n  \t\treturn string(bLower);\r\n  \t}\r\n\r\n\tfunction stringToBytes24(string memory source) internal pure returns (bytes24 result) {\r\n    bytes memory tempEmptyStringTest = bytes(source);\r\n    if (tempEmptyStringTest.length == 0) return 0x0;\r\n    assembly { result := mload(add(source, 24)) }\r\n  }\r\n\r\n  function utfStringLength(string str) internal pure returns (uint length) {\r\n    uint i=0;\r\n    bytes memory string_rep = bytes(str);\r\n\r\n    while (i<string_rep.length) {\r\n      if (string_rep[i]>>7==0) i+=1;\r\n      else if (string_rep[i]>>5==0x6) i+=2;\r\n      else if (string_rep[i]>>4==0xE) i+=3;\r\n      else if (string_rep[i]>>3==0x1E) i+=4;\r\n      else i+=1;\r\n      length++;\r\n    }\r\n  }\r\n\r\n}\r\n\r\ncontract ERC20 {\r\n    function totalSupply() public constant returns (uint supply);\r\n    function balanceOf( address who ) public constant returns (uint value);\r\n    function allowance( address owner, address spender ) public constant returns (uint _allowance);\r\n\r\n    function transfer( address to, uint value) public returns (bool ok);\r\n    function transferFrom( address from, address to, uint value) public returns (bool ok);\r\n    function approve( address spender, uint value ) public returns (bool ok);\r\n\r\n    event Transfer( address indexed from, address indexed to, uint value);\r\n    event Approval( address indexed owner, address indexed spender, uint value);\r\n}\r\n",
  "sourcePath": "D:\\work\\Contracts\\scatter_reservations\\contracts\\ScatterReservation.sol",
  "compiler": {
    "name": "solc",
    "version": "0.4.19+commit.c4cbbb05.Emscripten.clang"
  },
  "schemaVersion": "2.0.0",
  "updatedAt": "2018-03-07T00:08:34.860Z"
}